:020000040007F3
:10A000006057002039A5070041A5070043A50700B8
:10A0100045A5070047A5070049A507000000000067
:10A020000000000000000000000000004BA5070039
:10A030004DA50700000000004FA5070051A507002F
:10A0400053A5070053A50700E5A8070053A507007F
:10A0500053A5070053A5070053A5070053A5070004
:10A0600053A5070053A5070053A5070053A50700F4
:10A0700053A5070053A5070053A5070053A50700E4
:10A0800053A507002DA6070053A5070053A50700F9
:10A0900051A6070053A5070055A6070053A50700C2
:10A0A00053A5070053A5070053A5070053A50700B4
:10A0B00053A5070053A507000000000000000000A2
:10A0C00053A5070053A5070053A5070053A5070094
:10A0D00053A5070053A5070053A507000000000083
:10A0E0000000000000000000000000000000000070
:10A0F0000000000000000000000000000000000060
:10A10000000000000000000000000000000000004F
:10A11000000000000000000000000000000000003F
:10A40000DFF80CD000F0CEF80048004709C0070084
:10A4100060570020401E00BF00BF00BF00BF00BF4C
:10A4200000BF00BF00BF00BF00BF00BF00BF00BF34
:10A4300000BF00BF00BF00BF00BF00BF00BF00BF24
:10A4400000BF00BF00BF00BF00BF00BF00BF00BF14
:10A4500000BF00BF00BF00BF00BF00BF00BF00BF04
:10A4600000BF00BF00BF00BF00BF00BF00BF00BFF4
:10A4700000BF00BF00BF00BF00BF00BF00BF00BFE4
:10A4800000BF00BF00BFC5D170470000401E00BF25
:10A4900000BF00BF00BF00BF00BF00BF00BF00BFC4
:10A4A00000BF00BF00BF00BF00BF00BF00BF00BFB4
:10A4B00000BF00BF00BF00BF00BF00BF00BF00BFA4
:10A4C00000BF00BF00BF00BF00BF00BF00BF00BF94
:10A4D00000BF00BF00BF00BF00BF00BF00BF00BF84
:10A4E00000BF00BF00BF00BF00BF00BF00BF00BF74
:10A4F00000BF00BF00BF00BF00BF00BF00BFC5D18D
:10A5000070470000056885F308884068FF2464B23E
:10A51000EFF30585002D01D1A646004725460646E6
:10A5200021273FBAF0B40024002500260027F0B40C
:10A53000F92040B20047000006488047064800471F
:10A54000FEE7FEE7FEE7FEE7FEE7FEE7FEE7FEE7E3
:10A55000FEE7FEE779A6070001A4070040EA010331
:10A560009B0703D009E008C9121F08C0042AFAD2C9
:10A5700003E011F8013B00F8013B521EF9D270478D
:10A58000D2B201E000F8012B491EFBD27047002235
:10A59000F6E710B513460A4604461946FFF7F0FFE2
:10A5A000204610BD064C074D06E0E06840F0010370
:10A5B00094E8070098471034AC42F6D3FFF724FF25
:10A5C000E0D3070000D4070000F01F0201219140F2
:10A5D0004009800000F1E020C0F88012704700F0D0
:10A5E0001F02012191404009800000F1E020C0F8E5
:10A5F0000011704700F01F020121914040098000C6
:10A6000000F1E020C0F8001270474907090E002849
:10A6100006DA00F00F0000F1E02080F8141D70470A
:10A6200000F1E02080F80014704700000748002186
:10A63000C0F84011C0F84411C0F84811C0F84C11DE
:10A64000C0F80011C0F8041102F00ABC001001406B
:10A6500002F0A2BB074810B5406830B1804700281F
:10A6600007D0BDE8104000F07FB9BDE8104001F010
:10A67000C9BB10BDCC2C002070B58D480023021D35
:10A680000178101D0124062907D115782D0704D162
:10A690000578C5F30315032D02D0062904D00FE079
:10A6A000854E844D75670EE015782D0708D1057825
:10A6B000C5F30315032D06D0042D04D0052D02D0BB
:10A6C000062909D010E04FF08055D5F844527B4E52
:10A6D000C5F34235356002E015782D0704D10578C1
:10A6E000C5F30315032D02D0062906D011E0744DE1
:10A6F0002E6826F080762E600EE015782D0708D1A2
:10A700000578C5F30315032D06D0042D04D0052DBF
:10A7100002D006290AD011E04FF08045C5F80C316F
:10A72000C5F81031654D2D1F2B6002E015782D07FF
:10A7300004D10578C5F30315032D02D0062905D0F1
:10A740000CE05E4A0321643211600AE015782D079F
:10A7500004D10578C5F30315032D02D006290DD0C9
:10A760006AE0584A05211160564978310C60554914
:10A7700008310B603F21121D116002E011780907BA
:10A780005AD10078C0F30310052855D14E4800680F
:10A790004E4908604C48001D0068091D08604A4881
:10A7A00008300068091D086047480C300068091D22
:10A7B0000860454810300068091D086042481430A0
:10A7C0000068091D08604048183000683F49203182
:10A7D00008603D481C300068091D08603A48203078
:10A7E0000068091D0860384824300068091D0860A9
:10A7F000354828300068091D086033482C3000684F
:10A80000091D086030483030006830494031086028
:10A810002D4834300068091D08602B483830006826
:10A82000091D086028483C300068091D086026485A
:10A8300040300068091D086021487438016841F4FF
:10A8400070010160BFF34F8FBFF36F8F4FF0102186
:10A85000D1F80002002803DBD1F80402002822DA34
:10A860001B4A14601B480468002CFCD01524C1F856
:10A8700000420568002DFCD0C1F80442016800299F
:10A88000FCD0136001680029FCD0BFF34F8F0C4847
:10A89000F0380168104A01F4E06111430160BFF330
:10A8A0004F8F00BFFDE70E490C48086070BD0000E7
:10A8B000E00F00F00DF0ADBA00C007403C050040CD
:10A8C000FCED00E0105600400404001020C50040DC
:10A8D00004E5014000E401400400FA050090D003C3
:10A8E000E02C00200348007F08B102F067BC02F0B2
:10A8F000E1BB00004430002002E008C8121F08C17C
:10A90000002AFAD170477047002001E001C1121FF0
:10A91000002AFBD17047000010B50948084C007DA3
:10A92000E41CC000207000206070A070204601F080
:10A9300060FAE0702046BDE81040042101F0B4B98F
:10A940009C2C0020BFF34F8F05480168054A01F495
:10A95000E06111430160BFF34F8F00BFFDE70000CE
:10A960000CED00E00400FA050EB500210091CDE9E0
:10A9700001106A4644F20100FFF7E4FF0EBD00003B
:10A9800038B50C46064BE268097853F822506268E5
:10A990000092024604F10C006369A84738BD00002C
:10A9A0005831002070B50F4B054605201C785E78A5
:10A9B000A64216D01C7818789E88B04201DA401C56
:10A9C00000E0002018705E88D86804FB060028604C
:10A9D000986800EBC4039B880B8050F8340010602B
:10A9E000002070BD102C00202DE9F84F254C814629
:10A9F000924660880E46814241D800274FF6FF7884
:10AA00008DF80070684600F099F922786078A18886
:10AA1000884201DA401C00E00020C0B2904204D11C
:10AA20009DF8000000F0AEF927E065786078884274
:10AA300001DA401C00E0002060709DF8000000F08A
:10AA4000A1F9454519D0A068B9F1000F40F835A02B
:10AA50000DD066B16188E068324605FB01004946C9
:10AA6000FFF77CFDA06800EBC500868002E000EBEC
:10AA7000C50087800020BDE8F88F0420FBE709208F
:10AA8000F9E70000102C00200EB504E0029ABDF892
:10AA900004100098904702AA01A96846FFF782FFB8
:10AAA0000028F3D00EBD000030B5CB0008339DB2B6
:10AAB00093074FF0000401D0072030BD044B9A608B
:10AAC0002A44DA605C701C7058809980002030BD88
:10AAD000102C0020074B9B6823B12AB120B10068DD
:10AAE000037C1BB108207047072070474174426106
:10AAF00000207047202C002010B50446082902D001
:10AB00000020FFF731FFD4E90010BDE810400847EE
:10AB10001CB5044ACDE9000108216846FFF764FF2F
:10AB20001CBD0000F9AA07002DE9F04780469946B0
:10AB300014460F4690074FF0000634D11C4D8CB3DD
:10AB400001F0F0FE0320C5F81490287004F11800FD
:10AB5000002107EB4703AC6004EBC102491C1670EF
:10AB600056709770506000EBC3000329F4DBEE6071
:10AB70006E70AE701420FFF727FD06211420FFF73A
:10AB800044FD1420FFF72BFD0A49C1F8008006217F
:10AB90001120FFF73AFD0748001F006828610020D8
:10ABA000BDE8F08701E00720FAE7AE60FBE70000B0
:10ABB000202C0020081501402DE9F843DFF87090A3
:10ABC0000D461746D9F80810044651B34CB3052D6D
:10ABD00002D20720BDE8F883606910B3607C0128C9
:10ABE00021D0002602F056FBD9F80810804601EB70
:10ABF000C800694602F06DFBB8B1012100F8041BE2
:10AC00000C4910C0096880E8E200D9F8081001EB8F
:10AC1000C8009DF8001041701420FFF7EBFC0020E5
:10AC2000D8E70820D6E72E46DCE70420D2E700006C
:10AC3000202C002004150140F8B5124E0446B168DE
:10AC4000E1B1DCB16069C8B10027277402F022FBD2
:10AC50000546B068694600EBC50002F03AFB78B1E2
:10AC6000022101704460B0689DF8001000EBC5003F
:10AC700041701420FFF7BEFC3846F8BD0820F8BD2F
:10AC80000420F8BD202C002010B501F04BFC002062
:10AC900010BD000070B588B0154604461E4620223F
:10ACA0001A496846FFF75AFCA0680690207900B15F
:10ACB00001208DF814008DF81C60607900B10E2021
:10ACC0008DF81500E0780290A0780390207801902C
:10ACD000607800900E48002145608170207902283C
:10ACE00009D00C49684601F057FA002804D19DF8B4
:10ACF0001D0018B104E0062008B070BD01F0DCFAB8
:10AD000003480121401C01F091FAF5E734D3070014
:10AD1000002C00205DD00700074910B50870012104
:10AD2000054801F06FFB112803D0002800D0032054
:10AD300010BD042010BD0000002C002030B5EFF342
:10AD4000108172B60D4A9468012324B10370002962
:10AD500000D162B630BD93604FF0E023D3F880514C
:10AD6000074C25401560C3F88041D3F884415460F6
:10AD70005A17C3F8842100220270E8E750370020F8
:10AD8000FC06FFBC0B498A68002A11D000280FD1AD
:10AD9000EFF3108072B60B684FF0E022C2F800317A
:10ADA0004B68C2F8043100228A60002800D162B6E4
:10ADB00070470000503700202DE9F041044600782C
:10ADC000184F012606FA00F03860206801F0FEFBFB
:10ADD0000021606801F0F1FB1348144D007FA06969
:10ADE000C5F82405607D217D0843C5F86C05D4E9CC
:10ADF0000001C5F80C05C5F81415207D01280FD1F8
:10AE00000021A06801F0D9FB207B86403E60E0680D
:10AE100001F0DCFBD4E90201C5F80815C5F81005FE
:10AE2000BDE8F081080500504430002000200040BB
:10AE300030B51C498BB00A1D0DF1140C3CCA8CE8CE
:10AE40003C000968099120B105A818DF08B1FFF797
:10AE50008BFD4FF4F42013DF08B1FFF785FD124B93
:10AE60004822124909A801F071FF08B1FFF77CFDE3
:10AE700001216A46084601F043FF08B1FFF774FD5F
:10AE800001208DF80C00684601F030FF08B1FFF793
:10AE90006BFD074801F074FF002801D0FFF764FD47
:10AEA0000BB030BD20D3070039CD0700AC2E0020F9
:10AEB00095CD070038B50068401C18D000246846BE
:10AEC00000F048F90098017801290FD1418851B16B
:10AED00081684FF440500022806800F007FA009922
:10AEE0004988814201D1012400E00024204638BD78
:10AEF00070B511DF08B1FFF737FD4FF0E0210020FA
:10AF0000D1F800315FF0010404FA00F21A420AD0CD
:10AF100042B202F01F0504FA05F15209920002F153
:10AF2000E022C2F88011401C2028EDD34FF4405499
:10AF3000A06813DF08B1FFF717FDA068BDE87040F7
:10AF400000F006B908B5684600F004F900980178E9
:10AF5000A52904D00079AA2801D0002008BD01202D
:10AF600008BD10B500F04FFC18B900F06CFA0028CD
:10AF700013D0642001F0E6F800F008FC08B1FFF7F8
:10AF8000F3FC00F040FC08B1FFF7EEFC00F040FAE3
:10AF9000041E01D0FFF7E8FC204610BD00B587B0C5
:10AFA0001422084901A8FFF7D9FA05980DF1040CFD
:10AFB00000909CE80F0000F013F802F09FF907B032
:10AFC000002000BD80D3070010B500F0F7FA00287C
:10AFD00005D100F0F9FC044602F090F9204610BDBE
:10AFE0002DE9F84304460E4617461D466846DDF82F
:10AFF000208000F0AFF814F0FF024FEA14412F4C0C
:10B000002F484FF001034FF0FF0C10D0012A14D04D
:10B01000032A23D00021022A2DD0052A3FD0042A5A
:10B0200044D0062A01D104202070BDE8F883418075
:10B030008560037080F804C00BE04180F119294459
:10B040008160A521017080F804C0C0F81880C66036
:10B050000EE023701A4800F063F8E6E700990A78DA
:10B0600002704A88428089688160AA210171C660A5
:10B07000C0E90475EDE7009A1578A52D0AD0057092
:10B08000558845809268826080F804C0C160016183
:10B090004161DEE74180816080F800C0F4E700F0A4
:10B0A00087FC08B1FFF760FC0320BDE741808160A9
:10B0B00080F800C0009909790171CBE7402C00208D
:10B0C000643100200EB5084A07CA8DE8070001F078
:10B0D0003DFB002806D105494FF4FE204860684634
:10B0E00001F054FB0EBD000074D30700442C002077
:10B0F00038B50446684600F02DF8009801782170B4
:10B10000418861808168A16001792171C168E16035
:10B1100001692161416961618069A06138BD0000F8
:10B1200010B504461C21094801F006FB08B1FFF7E1
:10B130001BFC00231C222146044801F03BFB002895
:10B1400003D0BDE81040FFF70FBC10BD442C002019
:10B15000FFF7D8B9014901607047000000F007000F
:10B1600070B5174C0F20217801EB410104EBC102AF
:10B170001449536912F8045F4968012D0ED0032D5C
:10B180000BD14FF08050006980B2B3FBF0F008445F
:10B1900028DF002801D10121A17070BD080351688A
:10B1A00056690D1A3118926818441044B5F5805F3D
:10B1B00002D2AA0829DFECE74FF4806229DFE8E732
:10B1C00064300020082C002000EB400205480021DC
:10B1D00000EBC200032201718160C0E9042181619A
:10B1E000C1607047643000202DE9F041134C069E89
:10B1F00065780A2D1FD027783D44EDB20A2D01D382
:10B200000A3DEDB205EB450504EBC5052871AA61C1
:10B21000D1E90001C5E90401C5E90236A1780020A1
:10B2200021B9FFF79DFF112800D100206178491C4A
:10B230006170BDE8F0810420FBE70000643000206D
:10B240002DE9F05F2648C168F1B3DFF898B00E68C9
:10B250008146DBF800400769C078E11B21F07F459B
:10B26000ED1CB0B9DFF880804FF48030C8F844039B
:10B27000C8F804031120FFF7A7F91120FFF7AFF971
:10B280004FF0010AC8F800A02F20FFF7FFF889F857
:10B2900003A0B54200D23546124BE8193C3320F0EA
:10B2A0007F401860DBF800105A46091B21F07F41EF
:10B2B000001B20F07F40C91C81420FD91068186024
:10B2C0002F20FFF7E3F800E004E0BDE8F05F112075
:10B2D000FFF790B9BDE8F05F01F024BBBDE8F09F37
:10B2E000202C0020041501400010014010B5044638
:10B2F00012B11088002211E04FF6FF70FAE7030A3E
:10B3000043EA0023A05C5840C0F30313584080EA8E
:10B31000003080B2C3B280EA4310521C8A42EED39E
:10B3200010BD000010B5042816D20C4900EB4002F5
:10B3300001EB820351F822209C685AB111F8302F9A
:10B34000521E0A7000F00CF8201F00F02DFD08B10D
:10B35000FFF70AFB002010BD072010BD08320020B7
:10B3600000EB40020448002140F8221000EB82006C
:10B3700081604160704700000832002010B586B03F
:10B38000142101A8FFF703F90A4800248DF80440AE
:10B390008088ADF8060008480DF1040CC0680490E0
:10B3A000059800909CE80F00FFF71AFE06B02046B3
:10B3B00010BD0000502C0020AC310020032161F3AF
:10B3C000070008B50549064B898861F31F400ECB7D
:10B3D0000094FFF705FE002008BD0000502C00205F
:10B3E000B0310020012138B561F307000649074B51
:10B3F000898861F31F404FF440518C680ECB009454
:10B40000FFF7EEFD002038BD502C0020B0310020A9
:10B4100000B58BB004A8FFF76BFE089800280CD08D
:10B42000079860B107990A9808440021CDE90010F7
:10B43000089880080290684618DF0BB000BD4FF4F2
:10B4400040508068F1E700B58BB004A8FFF750FECC
:10B45000089800280FD0079878B107990A980844EF
:10B46000032100914FF4F421CDE9011008988008E0
:10B470000390684618DF0BB000BD4FF44050806861
:10B48000EEE7080001D0FFF76FBA704700B587B04C
:10B490001422074901A8FFF761F805980DF1040C83
:10B4A00000909CE80F00FFF79BFD07B000BD000077
:10B4B00098D307001FB503230093CDE9010190083D
:10B4C0000390684618DF04B010BD1FB50123009338
:10B4D000CDE9010190080390684618DF04B010BD63
:10B4E00070B5050004D0287A800703D0102070BD05
:10B4F0000E2070BD144C6078032803D0042801D0BE
:10B50000052801D0082070BD6868E1688600A06841
:10B510003044884204D94FF0FF30A0600C2070BD49
:10B5200000F028FA0028FAD1A9683246A3682069F9
:10B5300001F040F90028F2D1A1683144A160E2682D
:10B540009142ECD0092070BD502C0020094810B564
:10B550004078072801D0082010BD07480068FFF791
:10B560006BFB08B1FFF700FA04488068BDE81040A3
:10B5700000470000502C002094D30700FC3100202D
:10B5800010B50D4C6078052813D1D4E9020188422A
:10B590000FD10620607000F0EDF9002808D1206975
:10B5A000E168406800F086F8002801D10721617049
:10B5B00010BD082010BD0000502C0020FEB5174E15
:10B5C000174C06F11800002507C88DE80700A57084
:10B5D000A58004F11801684601F0D8F808B165703B
:10B5E000FEBD0F494FF440501831806848600D4A45
:10B5F00000210A48FFF76EFA08B1FFF7B5F90022FB
:10B600004FF470113068FFF7D7FA08B1FFF7ACF9C3
:10B610000120A56060700020FEBD000094D30700EB
:10B62000502C002059B9070010B5094C0820A1681A
:10B6300001B110BD61780429FBD1A178054800F063
:10B6400047F810B10021A17010BD0521617010BD37
:10B65000502C0020BC3100202DE9F041134C07464E
:10B660006078032805D0042805D008252846BDE8C1
:10B67000F08104206070A06808B10820F7E700F0AE
:10B6800079F90500F3D178688600A07881194029FE
:10B6900001D90920EBE7064AB96810443246FEF7A3
:10B6A0005DFFA0783044A070E0E70000502C00203F
:10B6B000BC31002010B50022FFF718FE03490988AD
:10B6C000884201D00B2010BD002010BD8031002029
:10B6D00070B500250C290ED343180189044600EBF0
:10B6E0004101581A0A38C2B21948022A027002D31C
:10B6F0000A318B4201D2092070BD1648FEF72EFF99
:10B700004FF010214FF6FF70B1F88020824202D036
:10B710002388934219D1B1F88210814202D0608807
:10B72000884212D120894FF6FE724FF44053A8424E
:10B730000BD904EB45014989914204D09E896D1CC7
:10B74000B6B2B142F3D1002070BD0B2070BD000035
:10B750004C2C002080310020084910B5A1F11800C0
:10B76000016102214170C168183000F0E5FF002836
:10B7700003D0BDE81040FFF7F7B810BD682C0020DB
:10B780000149486170470000502C00202DE9F0412C
:10B7900088B06846FFF7ACFC039800282BD0069AC7
:10B7A00000F580504FF48051904227D9A2F5805087
:10B7B00044081046039A00EB440687184FF44050A3
:10B7C0000D46806801EB440890420ED204F580508B
:10B7D00004220146FFF779FE00280CD129460422F5
:10B7E0000846FFF772FE002805D1BA1B23464146E2
:10B7F000304600F038F808B0BDE8F081039A0698AA
:10B80000FFF763FEF7E730B58FB002A8FFF770FCD3
:10B810000598002817D0089A00F580504FF4805101
:10B82000904216D9A2F58050430810464FF4405478
:10B83000059AA468059D024400EB430001EB430117
:10B84000AC4202D20E200FB030BD121A00F00BF83D
:10B85000F9E70BAB032083E80700059880080E90FA
:10B860000BA818DFEFE72DE9F0411C4617460D46FF
:10B870000646FFF71FFE002818D0B5F5805F07D9F0
:10B880002346291B301B1A46FFF7EDFF00280DD178
:10B890003A4629463046FFF718FE002806D13A46B8
:10B8A00029463046BDE8F041FFF704BEBDE8F0810F
:10B8B00070B542682148D2E90043D2E90212C0E9DA
:10B8C0000212C0E900430078440701D5840705D17E
:10B8D0009C0703D18C0701D1940701D0062070BDCD
:10B8E000174D0B441A44EA60B1F5A04F06D84FF447
:10B8F00040518968C1F5F421914201D20C2070BDFC
:10B900000E4C1049503421600F496160C10701D0CD
:10B910000E4804E0800701D50D4800E00D48A06006
:10B920006878012802D00826304670BD00F022F861
:10B930000600FAD12168E8688847F5E7AC310020B5
:10B94000502C002059B707008DB40700E5B307005D
:10B95000BDB307007DB3070068B5054E01253570FE
:10B96000052565F307000094FFF73AFB68BD00006A
:10B97000502C00200C4810B5007808B1082010BDEC
:10B980000A4C2068FFF758F908B1FEF7EDFF0022D6
:10B990004FF470112068FFF70FF9041E01D0FEF775
:10B9A000E3FF204610BD0000502C002094D3070078
:10B9B00010B50024E0B2FFF7B5FC641C042CF9D3E9
:10B9C000BDE8104000F08EB90D4910B5002081F897
:10B9D00030000446E0B2FFF7C3FC641C042CF9D32A
:10B9E0000848FFF7CDFE00F0AFF908B1FEF7BCFF45
:10B9F000054800F095F908B1FEF7B6FF002010BD2C
:10BA00000832002083B4070081C807000E4910B532
:10BA10004A788C780023A24212D0521CD2B24A70CB
:10BA2000022A00D14B70084A4B78183252F8232072
:10BA300002600869104420F07F400861012010BDB9
:10BA40000360002010BD0000202C0020C02808D07A
:10BA50000649DB2807D0CB694A6A9854521C4A62CF
:10BA6000704700F02DB8024848607047742C0020E1
:10BA700075BA070010B50B4CC02808D021464A6A99
:10BA8000CB69511CDC2805D0DD2806D104E000F08C
:10BA900017F804E0C02000E0DB20985461620248FF
:10BAA000606010BD742C00204DBA0700C02802D180
:10BAB00002490148486070474DBA0700742C0020C5
:10BAC000084B30B45A6A002A09D0DC68002C06D032
:10BAD0000020D9695862D861A44630BC604730BCA8
:10BAE00070470000742C0020002070470748002198
:10BAF000074A017002F5976002600222C0E9012145
:10BB0000C16001614161816108467047702C00206D
:10BB10005C320020F0B5184C8446A16851B36569C9
:10BB20001020691A01F0010326681A46012197279F
:10BB300013FB07F706EB8707674506D1A56901FAEE
:10BB400003F675400020A56103E021EA03039D424E
:10BB5000EDD1A56921EA030301FA02F635420AD1C3
:10BB6000A268002A07D0521EA2606268521C62605E
:10BB70001A46F1E70420F0BD14370020074A0121DE
:10BB8000138A12689943972311FB03F14FF416733C
:10BB900003EB810150500020704700001437002053
:10BBA00070B5D8B1D1B10F4AD368CBB15B1ED360A9
:10BBB000936897265B1C9360536914681D46734312
:10BBC00004EB830606604FF4167000EB83002058E8
:10BBD00008600120A8435061002070BD0E2070BD98
:10BBE000042070BD1437002010B5E9B100220A60AE
:10BBF000104A5368E3B1B0F5167F17D85B1E536047
:10BC0000D0689723401CD06010691468434304EB4C
:10BC100083030B60012101FA00F4936981432343FC
:10BC200093610020116110BD0E2010BD0C2010BDCD
:10BC3000042010BD14370020024900200870FFF7CF
:10BC400023B80000742C00200149C8600020704710
:10BC5000742C00203EB50A4C207808B100203EBD6F
:10BC6000084A062307CA8DE80700074A00216846EC
:10BC7000FFF710F80028F2D1012121703EBD00002D
:10BC8000742C0020D0D307009DCC0700044AC2E9E1
:10BC900007010020506203485060002070470000F8
:10BCA000742C0020ADBA070010B538B10B4A1378D8
:10BCB000012B05D0022B0FD0082010BD102010BD85
:10BCC00000239361C2E904010220107004489060CF
:10BCD00001F008F9002010BD042010BD742C0020D4
:10BCE000B1CB07000C4810B500218160C160FFF79F
:10BCF000FBFE08B1FEF738FEFFF79EFF08B1FEF726
:10BD000033FE06480068FEF797FF042802D10020A2
:10BD1000FEF72AFE002010BD9C2C0020DCD307007B
:10BD200010B504460648C4600648FFF78DFF08B109
:10BD3000FEF71AFE0CB1002010BD0E2010BD000051
:10BD40009C2C0020F1CB070070B5144C0020144A45
:10BD5000E061206260626070207001206061A0611B
:10BD6000A07001460F48FEF7B5FE78B9FFF7BEFE9A
:10BD700000280CD1FFF76EFF002808D14FF416758C
:10BD800004F110012846FFF72FFF08B1032070BD12
:10BD900029462069BDE87040FFF778BF9C2C002041
:10BDA000EDBD0700DCD30700001FFFF7B3BE0000A6
:10BDB00038B50D46040014D09DB10B490020009009
:10BDC0004A7862B1487069462046FFF7E9FE009A5A
:10BDD000921F00922A802168091D216038BD04202D
:10BDE00038BD0E2038BD00009C2C0020022001F040
:10BDF000D7B801784278807811440844C043401C89
:10BE0000C0B27047F8B51A4C207800282ED02069AF
:10BE100028B10026E06820B1002526B110E00126F7
:10BE2000F8E70125F9E7684652DF052803D020B17D
:10BE3000FEF79AFD04E0012602E021690098884798
:10BE400085B96088ADF800006946A06861DF052803
:10BE500003D020B1FEF788FD04E0012502E0D4E91B
:10BE600002018847002EDED0002DD6D0F8BD00009C
:10BE7000CC2C0020800701D00020704701207047A3
:10BE80002DE9F047DFF8ACA0DAF80C009AF8004092
:10BE900080469AF80460DAF80890DAF810703AE010
:10BEA00009EBC4052A7833E002EB42016B68521CAF
:10BEB00003EBC101AB78D2B2934200D100220B78E0
:10BEC000022B02D0032B23D11FE0D1F804C003467C
:10BED000014603E0614503D00B46C969C1B1F9E7EA
:10BEE000B1B18B4205D1C06918B9134F0126BE60AC
:10BEF0000027D1F800C0C969D96149B10B68634412
:10BF00000B6005E00174C06900E000210028F9D150
:10BF100069789142C8D1641EE4B2C1D2CAE903076C
:10BF20008AF80460404502D00120BDE8F087002077
:10BF3000FBE70000202C0020001001402DE9F04715
:10BF400005462F48002680460778D0F80C904BE035
:10BF5000D8F8080000EBC70440E002D02846ED699D
:10BF60001EE02078616800EB4002401CC0B201EB8B
:10BF7000C2012070A278904200D126700A784868E9
:10BF8000012A2DD1027C5ABB8A684260CA6882604D
:10BF90000A69C2604969816198F8041001B146607C
:10BFA0004268D8F81030DFF85CC0D11A21F07F4128
:10BFB000614502D28268114406E0991A826821F034
:10BFC0007F418A4202D9511A016000E00660466052
:10BFD000012186600174C66100F024FF002DBCD1F0
:10BFE000207861788842BCD17F1EFFB2B0D2D8F8E9
:10BFF0000C10494502D00120BDE8F0870020FBE786
:10C00000202C0020FFFF7F001CB548480168002657
:10C01000B12950D000251124142701222046009672
:10C0200000231146019600F09DFA641CBC42F4D92D
:10C030003F4F4FF4F01038604FF010204069B0F5DA
:10C04000F42F02D00020FEF78FFC4FF080500069E3
:10C05000B0F5805F02D00020FEF786FC354B364AF3
:10C0600005210020FEF760FD08B1FEF77DFC0323EB
:10C07000CDE9006300221020114600F073FAFFF7AB
:10C0800021F8FEF75FFF2A4E4FF40024361DA8B1B9
:10C090003460FEF766FF08B1FEF766FC85F001002C
:10C0A000FEF7C6FE00F004FDFEF778FF08B1FEF7CC
:10C0B0005BFC3C6008E001250660ACE785F0010010
:10C0C000FEF7B6FE00F0F4FC194808300068000CDA
:10C0D00010F0010F05D0002028434FF4405506D141
:10C0E00001E00120F8E7A868FEF7E4FE30B934600B
:10C0F000FEF76AFF08B1FEF737FC3C60A868FEF760
:10C10000D9FE28B1FEF71EFF10B9A868FEF7F0FEB1
:10C11000BFF34F8F09480168094A01F4E0611143F8
:10C120000160BFF34F8F00BFFDE700001C0500401A
:10C130000805005011AB0700E42C00200CED00E0D6
:10C140000400FA0531B540F2E73404E0401E0090E7
:10C150002046FEF75FF900980028F7D138BD49075F
:10C16000090E002806DA00F00F0202F1E02282F840
:10C17000141D03E000F1E02282F8001400F01F0219
:10C18000012191404009800000F1E020C0F88012B8
:10C19000C0F80011704700002DE9F0411E4C074621
:10C1A0000D46E07E10B10820BDE8F08107B91B4FB5
:10C1B000787F20773846FEF7FFFD6560386920609C
:10C1C0002800174E4FF0000516D0397F207F48B168
:10C1D000C6F81051C6F82051C6F82451C6F844518B
:10C1E000104804E0C6F81C51C6F844510E48C6F881
:10C1F00004030220FFF7B3FF207F08B1082000E00E
:10C200000420C6F80005E5752576A5750120E076C1
:10C21000A5760020C8E700004430002054D3070072
:10C220000020004010030200800002002DE9F041D0
:10C230001F4B1C7F3CB14FF40052B2EB104F02D0A9
:10C240001020BDE8F081D3F804C00022194D4FF44E
:10C2500004764FF40177BCF1000F05D014B1C5F896
:10C26000086301E0C5F8087393F817E0BEF1000F0A
:10C2700010D01A7E52B1BCF1000F05D014B1C5F830
:10C28000046301E0C5F804731120DAE718610122A4
:10C29000197604E0D9750025D8605D761D761CB14D
:10C2A000BDE8F04100F066B8BDE8F04100F014B818
:10C2B000443000200020004010B5064C207F0028AC
:10C2C00006D1A07E002803D100F072FB0120A076E9
:10C2D00010BD0000443000202DE9F05F234DA87E02
:10C2E000104301D100F064FB214C686830B14FF479
:10C2F0000170C4F804030020BDE8F09F4FF000096E
:10C300004FF4A27AC4F844914FF4927BA846594660
:10C31000204600F065F905464FF48471204600F090
:10C320005FF907465146204600F05AF9064647EAAB
:10C3300006012943EBD055EA060007D100F010FBB7
:10C3400098F8171098F819008142E0D888F81790EB
:10C350000DB10320D0E70EB10F20CDE798F81A10E9
:10C36000012009B12060C6E76060C4E744300020C6
:10C37000002000402DE9F05F204C00264FF4887328
:10C38000C4F810614FF4A275C4F84461C4F83405D0
:10C39000C4F838158AB1D4F8000240F02000C4F87F
:10C3A0000002DFF85C80D8F8040048B14FF4047054
:10C3B000C4F804030020BDE8F09F01202060F0E7EE
:10C3C0009A46A9464FF4927B5146204600F013F955
:10C3D00005464946204600F00EF9074659462046D4
:10C3E00000F009F93D430543EED088F8176008B125
:10C3F0000320E0E7002FDDD00F20DCE70020004025
:10C40000443000202DE9F047204D0246287F38B106
:10C410004FF40050B0EB124F02D01020BDE8F0876F
:10C4200000F078F808B11120F8E7A9750023AA6098
:10C43000AB82287F28B3164C00264FF490709846A4
:10C44000C4F820314FF4AC73C4F85881C4F84425C3
:10C45000C4F848150121A160696881B982469946EE
:10C460005146204600F0C7F807464946204600F0EE
:10C47000C2F80743F4D000B10F2685F81680304685
:10C48000CCE7BDE8F04700F005B8000044300020DC
:10C49000002000402DE9F05F1C4F00254FF48E7AFC
:10C4A0002E46C7F81C514FF00108C7F8088000F06D
:10C4B00053FD174CB815616879B123E05F465146CA
:10C4C000484600F08DF810B9A08AB842F7D1A08A8A
:10C4D000B84204D000F040FD01E08346B946A08A8E
:10C4E000A17D8842EAD3A08A584501D10F2508E0F2
:10C4F0004F465146384600F073F80028F9D0C7F887
:10C500000C80A6752846BDE8F09F00000020004082
:10C51000443000200248807D002800D00120704770
:10C520004430002070B50C4C0C480025217FC0F829
:10C53000005562685AB109B1094901E008498C39CE
:10C54000C0F808134FF0E0210420C1F8800100F08A
:10C5500057F8E576656070BD44300020002000404B
:10C560001003020030B541EA4201DDE9034541EA2A
:10C570008301800041EA042100F1A04041EA054125
:10C58000C0F8001730BD30B541EA4201DDE903458E
:10C5900041EA8301800041EA042100F1A04041EA20
:10C5A0000541C0F8001730BD1CB5002100910B46B5
:10C5B00001220191FFF7E7FF1CBD1CB500220B46CD
:10C5C000009211460192FFF7DEFF1CBD1CB5002151
:10C5D00000910B46012201911146FFF7D4FF1CBDCB
:10C5E0004058002800D001207047D0F804030840CC
:10C5F00000D0012070474058002800D0012070472B
:10C6000070B513484FF0FF31D0F80C25D0F8146501
:10C61000D0F80855D0F81045C0F80C15C0F814151E
:10C62000C0F80815C0F810151046FFF7BDFF3046DA
:10C63000FFF7BAFF601C02D02046FFF7B5FF681C69
:10C6400004D02846BDE87040FFF7AEBF70BD0000C3
:10C650000020004070B51A4D27E0002404EB440090
:10C6600005EB80000168E9B101290ED0032907D04C
:10C67000042902D005290FD11CE0FEF731FF0BE0A1
:10C6800081684160FFF714F903E0FEF7E5FFFEF76C
:10C69000CBFF08B1FEF768F9E0B2FEF743FE08B140
:10C6A000FEF762F9641C042CD8D395F830000028FA
:10C6B000D3D170BDFEF764FFBDE87040FEF746BF02
:10C6C0000832002006480378012B03D1012901D14B
:10C6D00002210170100001D0FEF746B9704700003A
:10C6E000402C002070B5124C1E461546607801297A
:10C6F00002D0032914D107E0052811D163697BB169
:10C700003246294604200AE0022809D10948406837
:10C71000804703206070636913B132462946984709
:10C72000280003D0BDE87040FEF71EB970BD0000C0
:10C73000502C0020FC31002008B50B460022014699
:10C7400003200092FEF750FD08BD000070B50D4EAD
:10C7500000240D4874602546047044708470284697
:10C76000FEF732FD6D1C0A2DF9D307493460002015
:10C77000F431746041F82040401C0328FAD30020B3
:10C7800070BD0000082C002064300020074B1A68A0
:10C79000032A08D00A600649006841F82200521CAA
:10C7A00000201A607047042070470000082C002009
:10C7B00058310020F8B507461D4616460C46084677
:10C7C000FFF758FB58B16019FFF754FB38B13346F7
:10C7D0002246394601200095FEF706FDF8BD1020DF
:10C7E000F8BD000070B5244C06460022A078012850
:10C7F00041D100232146A3700D78022E05EB4500A0
:10C8000001EBC00103D0032E35D10D202EE01B48D3
:10C810004668761C46608968B1EB063F15D84360D0
:10C820006078401E6070681CC0B220700A2801D376
:10C830000A38207005EB450004EBC0011046091DC5
:10C84000FEF79EF82846FEF7BFFC6078002812D05D
:10C85000A07800280FD1FEF783FC00280BD0112808
:10C8600009D0217801EB410104EBC101BDE8704022
:10C87000091DFEF785B870BD64300020082C00202B
:10C880003EB50020ADF80400009001A96846FFF70E
:10C890008FFA98B9009802AC03780420DBB11F4AE4
:10C8A00092F83010032909D05FF0000101EB410537
:10C8B00052F825508DB1491C0429F7D3009900295D
:10C8C00008D0002806D00846FFF76EFA002801D0ED
:10C8D000FEF74AF83EBD0720F0E701EB410021706A
:10C8E00042F8203092F83000401C82F83000BDF849
:10C8F00004004FF0FF3101EB90019DF8080000EBC0
:10C90000400002EB8000064A41600099091D8160E9
:10C9100000210846FEF768F8D0E700000832002042
:10C9200055C6070070B5012670044FF0E0210025C0
:10C93000C1F88001084C4010C4F84803C4F808034B
:10C9400066602F20FDF7A2FDA660044C2F20256114
:10C95000FDF79CFDE57070BD00100140202C00200B
:10C9600009480A490022C37DC1F8082143B1D1F822
:10C970001815437EC268D154417E491C41767047E8
:10C98000D1F8180570470000443000200020004016
:10C990001FB501228DF8080004488DF80020019190
:10C9A000D0E90012684690471FBD000044300020C7
:10C9B00004480021C0F82411C0F8081101210160C9
:10C9C00070470000002000402DE9F047374C054635
:10C9D00089460F464FF000084FF41676042958D9BF
:10C9E0002878410655D5010653D5697801F00F0224
:10C9F0000E2A4ED10144AA78E8781044084410F079
:10CA0000FF0F46D10022B91E2846FEF76FFCE91938
:10CA100031F8021C88423CD12878012700F0070138
:10CA20006069C2B28A4229D1401C00F007006061EF
:10CA3000FDF772FF67704846FFF7A0F808B1FDF7F1
:10CA400093FF1A4930461031FFF7CEF840B1042861
:10CA500002D00020FDF788FF14480521283001E0AE
:10CA600031462069FFF712F908B1FDF77DFFE16853
:10CA7000002918D04046BDE8F047084731462069F4
:10CA8000FFF704F908B1FDF76FFFBDE8F047FDF7C8
:10CA900043BF31462069FFF7F9F8002803D0BDE80D
:10CAA000F047FDF761BFBDE8F08700009C2C002037
:10CAB00010B5064A14210820FDF7F6FF002803D020
:10CAC000BDE81040FDF750BF10BD0000F42E00205F
:10CAD00010B50121202803DA1D4A8140114004E0ED
:10CAE000402803DAA0F12002914041B1002809DA80
:10CAF00000F00F0101F1E02191F8141D06E042F26F
:10CB0000010010BD00F1E02191F800144909082945
:10CB100014D299B1012911D004290FD005290DD0C3
:10CB20000C4A946800F01F0301219940400944B168
:10CB300052F820300B4342F8203007E042F2020066
:10CB400010BD800000F1E020C0F80011002010BDF1
:10CB5000FC06FFBC5037002010B5064CA1692069C7
:10CB6000405CFEF7D9F8002802D1A169491CA161F7
:10CB700010BD0000742C002010B50B4CA169206979
:10CB8000405CC02803D0DB2803D0042010BDDC208B
:10CB900000E0DD20FEF7C0F80028F7D1A169491CAC
:10CBA000A1610249A16010BD742C002059CB07007F
:10CBB00010B5C020FEF7B0F8002805D103498A69F6
:10CBC000002A01D1024A8A6010BD0000742C0020A6
:10CBD00059CB070010B5DB20FEF79EF8002802D1E4
:10CBE000024A0149916010BD79CB0700742C0020E6
:10CBF00070B510F0FF0009D0012802D0022846D1FC
:10CC00003BE0BDE87040012000F0CAB9224C042A84
:10CC100022D34B7813F00F0007D00E281CD1BDE8AB
:10CC2000704008461146FFF7CFBE0878C2188B78CF
:10CC3000C9781944114411F0FF0F4FF000020BD1D5
:10CC4000C0F3C201207E401C00F00700884203D1DF
:10CC5000A270032000F0A4F920694FF4167508B102
:10CC6000294610E00C4928461031FEF7BDFF40B1BF
:10CC7000042802D00020FDF777FE07480521283060
:10CC800001E029462069FFF701F8002803D0BDE83C
:10CC90007040FDF769BE70BD9C2C002070B5054644
:10CCA0000078104C032804D12078022818D100F015
:10CCB00019F92878042813D1E16919B1D4E90802D7
:10CCC000824208D3E368002B0AD00748626AC06832
:10CCD000BDE87040184728796168BDE87040084792
:10CCE00070BD0000742C0020B8D307001CB50349A8
:10CCF00001910091694660DF1CBD0000002C0020FE
:10CD000070B50E460546144614211046FDF73FFC4B
:10CD1000012020800021216121732672657205B1F6
:10CD2000A072002070BD10B511B10020FDF71CFEEF
:10CD3000BDE81040FFF766B80021024A0846FDF73B
:10CD400053BE000027CD0700FDF7FCBD30B409B18C
:10CD50008C0702D0072030BC7047074C0125A1602A
:10CD600062800649636010DF0028F4D1257030BC72
:10CD70001620FFF7ADBE0000CC2C002049CD0700E7
:10CD800018B103490861002070470E207047000069
:10CD9000CC2C0020FFF726BD2DE9F84F204C0025B4
:10CDA0006846D4E903B6FEF731FE8046FFF768F81F
:10CDB0000746A946B8F1000F25D00023009ACC46BB
:10CDC000E06819E007680146974202D9BA1A026082
:10CDD00014E0C1F800C0D1F80C80D21BC8693B44F4
:10CDE0008A46B8F1000F07D0F71827F07F47C1E94E
:10CDF0000178CAF81C500D460028E3D1E0602846AF
:10CE0000FFF79CF804E02846FFF798F800B917B13F
:10CE10005846FEF715FA84F80490BDE8F88F000034
:10CE2000202C00200D4B10B5D96831B102680C6878
:10CE3000A24204D8A21A0A60C161D86010BD0B4694
:10CE400003E00B46C969121B21B10C689442F8D368
:10CE5000A41A0C600260C161D86110BD202C0020B2
:10CE60002DE9F0411D4DEC68002C35D01C48002701
:10CE700000682969B846401A20F07F462068B04211
:10CE800015D82246361A0744E469107C68B182F846
:10CE900010806B6933B1D2E90501984728B1FDF7DD
:10CEA00063FD02E0D2E905108847002CE6D16978DD
:10CEB000A878814206D1401CC0B2A870022801D1D6
:10CEC00085F802800548A978183040F82170BDE83F
:10CED000F0411420FDF78EBBBDE8F081202C00202E
:10CEE0000415014070B5174D174E184C12E0A1699A
:10CEF0002069415CC02903D0A169405CDB2803D1D3
:10CF0000A068A84200D1A660A0688047042817D076
:10CF1000112815D0A06961698842E8D30C48A06047
:10CF2000FFF746FE00280BD101202070E368002B9C
:10CF300006D00848A26921690068BDE8704018471A
:10CF400070BD000059CB0700D5CB0700742C002022
:10CF5000B1CB0700B8D30700064A0020C2F81C0175
:10CF60000548838A8168C95C838A5B1C8382C2F816
:10CF70001C15704700200040443000201FB50021E0
:10CF80008DF8080005488DF80010826801928175BF
:10CF9000D0E90012684690471FBD000044300020D1
:10CFA00070B5284C284B25788DB12246012D116A89
:10CFB000D2691BD0022D44D118B302282FD00328E8
:10CFC0003FD1207E401C00F00700A06134E0002823
:10CFD00037D11868FDF730FE08B1FDF7C5FCA16830
:10CFE00000292ED0A078BDE870400847012828D13C
:10CFF0001046891DFEF758FE08B1FDF7B5FC02206A
:10D000001BE000200246606244F6DF711868FDF7FD
:10D01000D3FD002815D0BDE87040FDF7A5BC606ABF
:10D02000052807D0401C6062BDE870401046891D8D
:10D03000FEF73ABE0120A0700020BDE8704000F06D
:10D0400005B870BD9C2C0020DCD307000249087095
:10D050000020FFF7A5BF00009C2C00201CB5017824
:10D06000134C012907D0022914D000291FD1032015
:10D070008DF8000018E004218DF8001040680121AF
:10D0800000788DF804000A48401CFFF7CFF8012013
:10D09000A07009E002218DF80010C06801900448DA
:10D0A0000121401CFFF7C2F86168684688471CBD33
:10D0B000002C00202DE9FF413E4D4FF40071284621
:10D0C000FFF793FA01273C4C4FF40178002600B398
:10D0D0004FF492712846FFF783FAD0B1C5F8246166
:10D0E000C5F80883A07E00B96F6002208DF80000AB
:10D0F000D5F88004C5F880040390E07D8DF8080021
:10D10000E0680190E6752676D4E9001268469047FB
:10D1100024E004212846FFF768FAF8B14FF484713F
:10D120002846FFF75DFAC8B1FFF71AFCE07D617E83
:10D13000884213D1227E3AB1607EE168E2752269AD
:10D14000E2602676667607E0A07E00B96F60C5F8DB
:10D150000883E675607EE168FFF71AFC4FF48E7174
:10D160002846FFF73DFA58B1A18AA07D814202D23C
:10D17000FFF7F2FE04E0C5F81C6108B1FFF7FEFE00
:10D180004FF4A2712846FFF72BFA00280FD0C5F8FC
:10D190004461A07E00B12F60E07D002807D0E675D5
:10D1A000607EE16804B0BDE8F041FFF7F1BBBDE887
:10D1B000FF81000000200040443000207FB5334C48
:10D1C0004FF492712046FFF716FA314D0026B0B1A8
:10D1D000C4F8246102208DF80000D4F88004C4F85B
:10D1E00080040390D4F83C058DF80800E8680190AD
:10D1F000EE752E76D5E90012684690471FE04FF491
:10D2000088712046FFF7F7F9C8B1C4F81061D4F867
:10D210003C05E97DC0B2814211D12A7E5AB1E9684C
:10D22000D4F8003223F02003C4F80032EA752A69EA
:10D23000EA602E7601E0EE75E968FFF7A9FB4FF48E
:10D24000A2712046FFF7D7F950B1C4F84461E87DD8
:10D2500030B1EE75D4F83C05E968C0B2FFF798FB31
:10D260004FF490712046FFF7C6F900280CD0C4F89F
:10D270002061A87D002807D0D4F84C0504B0C0B2C6
:10D28000BDE87040FFF77ABE7FBD0000002000407F
:10D2900044300020EFF30580C005C00D13D01038D6
:10D2A00040B2002806DA00F00F0000F1E02090F80C
:10D2B000140D03E000F1E02090F80004400902287A
:10D2C00003D0062803D002207047002070470120B9
:10D2D000704742788378521CD2B2934200D1002228
:10D2E0000378934201D1002070470A70416840786A
:10D2F00000EB400001EBC0007047000010B5074C88
:10D3000048DF08B1FDF730FBFDF7BEFB20780228AF
:10D3100003D0032801D00428F2D110BD402C0020F6
:10D3200001000007020000000000000000000000F3
:10D3300000000000060000000800000007000000D8
:10D340000500000000000000000000000000D60101
:10D3500006000000060000000800000007000000B2
:10D360000500000000000000000000000000D601E1
:10D3700006000000C5C60700000000000000000015
:10D38000020000000000000000000000000000009B
:10D39000000000008C3100200400000000000000AC
:10D3A000000000000000000000000000E5C60700CB
:10D3B000000000000000000001000000000000006C
:10D3C000000000000200000000000000000000005B
:10D3D000080605070000000000509D0030370020BF
:10D3E00000D40700002C0020E4000000F8A807008B
:10D3F000E4D40700E42C00207C2A000008A90700E0
:10D40000000000000000000000000000000000001C
:10D41000000000000000000000000000000000000C
:10D4200000000000000000000000000000000000FC
:10D4300000000000000000000000000000000000EC
:10D4400000000000000000000000000000000000DC
:10D4500000000000000000000000000000000000CC
:10D4600000000000000000000000000000000000BC
:10D470000000000000000000ADBA070059CB070013
:10D48000000000000000000000000000000000009C
:10D49000000000000000000000000000000000008C
:10D4A000000000000000000000000000000000007C
:10D4B000000000000000000000000000000000006C
:10D4C000000000000000000000000000000000005C
:10D4D000000000000000000000000000000000004C
:04D4E0000090D003E5
:020000041000EA
:0410140000A0070031
:020000041000EA
:0410180000E00700ED
:040000050007A4014B
:00000001FF
