:020000040007F3
:10A00000A057002039A5070041A5070043A5070078
:10A0100045A5070047A5070049A507000000000067
:10A020000000000000000000000000004BA5070039
:10A030004DA50700000000004FA5070051A507002F
:10A0400053A5070053A50700E5A8070053A507007F
:10A0500053A5070053A5070053A5070053A5070004
:10A0600053A5070053A5070053A5070053A50700F4
:10A0700053A5070053A5070053A5070053A50700E4
:10A0800053A507002DA6070053A5070053A50700F9
:10A0900051A6070053A5070055A6070053A50700C2
:10A0A00053A5070053A5070053A5070053A50700B4
:10A0B00053A5070053A507000000000000000000A2
:10A0C00053A5070053A5070053A5070053A5070094
:10A0D00053A5070053A5070053A507000000000083
:10A0E0000000000000000000000000000000000070
:10A0F0000000000000000000000000000000000060
:10A10000000000000000000000000000000000004F
:10A11000000000000000000000000000000000003F
:10A40000DFF80CD000F0CEF800480047C1C00700CC
:10A41000A0570020401E00BF00BF00BF00BF00BF0C
:10A4200000BF00BF00BF00BF00BF00BF00BF00BF34
:10A4300000BF00BF00BF00BF00BF00BF00BF00BF24
:10A4400000BF00BF00BF00BF00BF00BF00BF00BF14
:10A4500000BF00BF00BF00BF00BF00BF00BF00BF04
:10A4600000BF00BF00BF00BF00BF00BF00BF00BFF4
:10A4700000BF00BF00BF00BF00BF00BF00BF00BFE4
:10A4800000BF00BF00BFC5D170470000401E00BF25
:10A4900000BF00BF00BF00BF00BF00BF00BF00BFC4
:10A4A00000BF00BF00BF00BF00BF00BF00BF00BFB4
:10A4B00000BF00BF00BF00BF00BF00BF00BF00BFA4
:10A4C00000BF00BF00BF00BF00BF00BF00BF00BF94
:10A4D00000BF00BF00BF00BF00BF00BF00BF00BF84
:10A4E00000BF00BF00BF00BF00BF00BF00BF00BF74
:10A4F00000BF00BF00BF00BF00BF00BF00BFC5D18D
:10A5000070470000056885F308884068FF2464B23E
:10A51000EFF30585002D01D1A646004725460646E6
:10A5200021273FBAF0B40024002500260027F0B40C
:10A53000F92040B20047000006488047064800471F
:10A54000FEE7FEE7FEE7FEE7FEE7FEE7FEE7FEE7E3
:10A55000FEE7FEE779A6070001A4070040EA010331
:10A560009B0703D009E008C9121F08C0042AFAD2C9
:10A5700003E011F8013B00F8013B521EF9D270478D
:10A58000D2B201E000F8012B491EFBD27047002235
:10A59000F6E710B513460A4604461946FFF7F0FFE2
:10A5A000204610BD064C074D06E0E06840F0010370
:10A5B00094E8070098471034AC42F6D3FFF724FF25
:10A5C00098D40700B8D4070000F01F020121914081
:10A5D0004009800000F1E020C0F88012704700F0D0
:10A5E0001F02012191404009800000F1E020C0F8E5
:10A5F0000011704700F01F020121914040098000C6
:10A6000000F1E020C0F8001270474907090E002849
:10A6100006DA00F00F0000F1E02080F8141D70470A
:10A6200000F1E02080F80014704700000748002186
:10A63000C0F84011C0F84411C0F84811C0F84C11DE
:10A64000C0F80011C0F8041102F066BC001001400F
:10A6500002F0FEBB074810B5406830B180470028C3
:10A6600007D0BDE8104000F07FB9BDE8104001F010
:10A6700025BC10BDD02C002070B58D480023021DD4
:10A680000178101D0124062907D115782D0704D162
:10A690000578C5F30315032D02D0062904D00FE079
:10A6A000854E844D75670EE015782D0708D1057825
:10A6B000C5F30315032D06D0042D04D0052D02D0BB
:10A6C000062909D010E04FF08055D5F844527B4E52
:10A6D000C5F34235356002E015782D0704D10578C1
:10A6E000C5F30315032D02D0062906D011E0744DE1
:10A6F0002E6826F080762E600EE015782D0708D1A2
:10A700000578C5F30315032D06D0042D04D0052DBF
:10A7100002D006290AD011E04FF08045C5F80C316F
:10A72000C5F81031654D2D1F2B6002E015782D07FF
:10A7300004D10578C5F30315032D02D0062905D0F1
:10A740000CE05E4A0321643211600AE015782D079F
:10A7500004D10578C5F30315032D02D006290DD0C9
:10A760006AE0584A05211160564978310C60554914
:10A7700008310B603F21121D116002E011780907BA
:10A780005AD10078C0F30310052855D14E4800680F
:10A790004E4908604C48001D0068091D08604A4881
:10A7A00008300068091D086047480C300068091D22
:10A7B0000860454810300068091D086042481430A0
:10A7C0000068091D08604048183000683F49203182
:10A7D00008603D481C300068091D08603A48203078
:10A7E0000068091D0860384824300068091D0860A9
:10A7F000354828300068091D086033482C3000684F
:10A80000091D086030483030006830494031086028
:10A810002D4834300068091D08602B483830006826
:10A82000091D086028483C300068091D086026485A
:10A8300040300068091D086021487438016841F4FF
:10A8400070010160BFF34F8FBFF36F8F4FF0102186
:10A85000D1F80002002803DBD1F80402002822DA34
:10A860001B4A14601B480468002CFCD01524C1F856
:10A8700000420568002DFCD0C1F80442016800299F
:10A88000FCD0136001680029FCD0BFF34F8F0C4847
:10A89000F0380168104A01F4E06111430160BFF330
:10A8A0004F8F00BFFDE70E490C48086070BD0000E7
:10A8B000E00F00F00DF0ADBA00C007403C050040CD
:10A8C000FCED00E0105600400404001020C50040DC
:10A8D00004E5014000E401400400FA050090D003C3
:10A8E000E42C00200348007F08B102F0C3BC02F052
:10A8F0003DBC00004830002002E008C8121F08C11B
:10A90000002AFAD170477047002001E001C1121FF0
:10A91000002AFBD17047000010B50948084C007DA3
:10A92000E41CC000207000206070A070204601F080
:10A93000BCFAE0702046BDE81040042101F010BAD6
:10A94000A02C0020BFF34F8F05480168054A01F491
:10A95000E06111430160BFF34F8F00BFFDE70000CE
:10A960000CED00E00400FA050EB500210091CDE9E0
:10A9700001106A4644F20100FFF7E4FF0EBD00003B
:10A9800038B50C46064BE268097853F822506268E5
:10A990000092024604F10C006369A84738BD00002C
:10A9A0005C31002070B50F4B054605201C785E78A1
:10A9B000A64216D01C7818789E88B04201DA401C56
:10A9C00000E0002018705E88D86804FB060028604C
:10A9D000986800EBC4039B880B8050F8340010602B
:10A9E000002070BD102C00202DE9F84F254C814629
:10A9F000924660880E46814241D800274FF6FF7884
:10AA00008DF80070684600F099F922786078A18886
:10AA1000884201DA401C00E00020C0B2904204D11C
:10AA20009DF8000000F0AEF927E065786078884274
:10AA300001DA401C00E0002060709DF8000000F08A
:10AA4000A1F9454519D0A068B9F1000F40F835A02B
:10AA50000DD066B16188E068324605FB01004946C9
:10AA6000FFF77CFDA06800EBC500868002E000EBEC
:10AA7000C50087800020BDE8F88F0420FBE709208F
:10AA8000F9E70000102C00200EB504E0029ABDF892
:10AA900004100098904702AA01A96846FFF782FFB8
:10AAA0000028F3D00EBD000030B5CB0008339DB2B6
:10AAB00093074FF0000401D0072030BD044B9A608B
:10AAC0002A44DA605C701C7058809980002030BD88
:10AAD000102C0020074B9B6823B12AB120B10068DD
:10AAE000037C1BB108207047072070474174426106
:10AAF00000207047202C002010B50446082902D001
:10AB00000020FFF731FFD4E90010BDE810400847EE
:10AB10001CB5044ACDE9000108216846FFF764FF2F
:10AB20001CBD0000F9AA07002DE9F04780469946B0
:10AB300014460F4690074FF0000634D11C4D8CB3DD
:10AB400001F04CFF0320C5F81490287004F11800A0
:10AB5000002107EB4703AC6004EBC102491C1670EF
:10AB600056709770506000EBC3000329F4DBEE6071
:10AB70006E70AE701420FFF727FD06211420FFF73A
:10AB800044FD1420FFF72BFD0A49C1F8008006217F
:10AB90001120FFF73AFD0748001F006828610020D8
:10ABA000BDE8F08701E00720FAE7AE60FBE70000B0
:10ABB000202C0020081501402DE9F843DFF87090A3
:10ABC0000D461746D9F80810044651B34CB3052D6D
:10ABD00002D20720BDE8F883606910B3607C0128C9
:10ABE00021D0002602F0B2FBD9F80810804601EB14
:10ABF000C800694602F0C9FBB8B1012100F8041B86
:10AC00000C4910C0096880E8E200D9F8081001EB8F
:10AC1000C8009DF8001041701420FFF7EBFC0020E5
:10AC2000D8E70820D6E72E46DCE70420D2E700006C
:10AC3000202C002004150140F8B5124E0446B168DE
:10AC4000E1B1DCB16069C8B10027277402F07EFB76
:10AC50000546B068694600EBC50002F096FB78B186
:10AC6000022101704460B0689DF8001000EBC5003F
:10AC700041701420FFF7BEFC3846F8BD0820F8BD2F
:10AC80000420F8BD202C002010B501F0A7FC002006
:10AC900010BD000070B588B0154604461E4620223F
:10ACA0001A496846FFF75AFCA0680690207900B15F
:10ACB00001208DF814008DF81C60607900B10E2021
:10ACC0008DF81500E0780290A0780390207801902C
:10ACD000607800900E48002145608170207902283C
:10ACE00009D00C49684601F0B3FA002804D19DF858
:10ACF0001D0018B104E0062008B070BD01F038FB5B
:10AD000003480121401C01F0EDFAF5E7ECD3070000
:10AD1000002C002015D10700074910B5087001214B
:10AD2000054801F0CBFB112803D0002800D00320F8
:10AD300010BD042010BD0000002C002030B5EFF342
:10AD4000108172B60D4A9468012324B10370002962
:10AD500000D162B630BD93604FF0E023D3F880514C
:10AD6000074C25401560C3F88041D3F884415460F6
:10AD70005A17C3F8842100220270E8E794370020B4
:10AD8000FC06FFBC0B498A68002A11D000280FD1AD
:10AD9000EFF3108072B60B684FF0E022C2F800317A
:10ADA0004B68C2F8043100228A60002800D162B6E4
:10ADB00070470000943700202DE9F04104460078E8
:10ADC000184F012606FA00F03860206801F05AFC9E
:10ADD0000021606801F04DFC1348144D007FA0690C
:10ADE000C5F82405607D217D0843C5F86C05D4E9CC
:10ADF0000001C5F80C05C5F81415207D01280FD1F8
:10AE00000021A06801F035FC207B86403E60E068B0
:10AE100001F038FCD4E90201C5F80815C5F81005A1
:10AE2000BDE8F081080500504830002000200040B7
:10AE300030B51C498BB00A1D0DF1140C3CCA8CE8CE
:10AE40003C000968099120B105A818DF08B1FFF797
:10AE50008BFD4FF4F42013DF08B1FFF785FD124B93
:10AE60004822124909A801F0CDFF08B1FFF77CFD87
:10AE700001216A46084601F09FFF08B1FFF774FD03
:10AE800001208DF80C00684601F08CFF08B1FFF737
:10AE90006BFD074801F0D0FF002801D0FFF764FDEB
:10AEA0000BB030BDD8D30700F1CD0700B02E002085
:10AEB0004DCE070038B50068401C18D00024684605
:10AEC00000F048F90098017801290FD1418851B16B
:10AED00081684FF440500022806800F007FA009922
:10AEE0004988814201D1012400E00024204638BD78
:10AEF00070B511DF08B1FFF737FD4FF0E0210020FA
:10AF0000D1F800315FF0010404FA00F21A420AD0CD
:10AF100042B202F01F0504FA05F15209920002F153
:10AF2000E022C2F88011401C2028EDD34FF4405499
:10AF3000A06813DF08B1FFF717FDA068BDE87040F7
:10AF400000F006B908B5684600F004F900980178E9
:10AF5000A52904D00079AA2801D0002008BD01202D
:10AF600008BD10B500F099FC18B900F085FA00286A
:10AF700013D0642001F042F900F052FC08B1FFF751
:10AF8000F3FC00F08AFC08B1FFF7EEFC00F052FA87
:10AF9000041E01D0FFF7E8FC204610BD00B587B0C5
:10AFA0001422084901A8FFF7D9FA05980DF1040CFD
:10AFB00000909CE80F0000F013F802F0FBF907B0D6
:10AFC000002000BD38D4070010B500F019FB0028A0
:10AFD00005D100F055FD044602F0ECF9204610BD05
:10AFE0002DE9F84304460E4617461D466846DDF82F
:10AFF000208000F0AFF814F0FF024FEA14412F4C0C
:10B000002F484FF001034FF0FF0C10D0012A14D04D
:10B01000032A23D00021022A2DD0052A3FD0042A5A
:10B0200044D0062A01D104202070BDE8F883418075
:10B030008560037080F804C00BE04180F119294459
:10B040008160A521017080F804C0C0F81880C66036
:10B050000EE023701A4800F063F8E6E700990A78DA
:10B0600002704A88428089688160AA210171C660A5
:10B07000C0E90475EDE7009A1578A52D0AD0057092
:10B08000558845809268826080F804C0C160016183
:10B090004161DEE74180816080F800C0F4E700F0A4
:10B0A000E3FC08B1FFF760FC0320BDE7418081604D
:10B0B00080F800C0009909790171CBE7402C00208D
:10B0C000683100200EB5084A07CA8DE8070001F074
:10B0D00099FB002806D105494FF4FE2048606846D8
:10B0E00001F0B0FB0EBD00002CD40700442C002062
:10B0F00038B50446684600F02DF8009801782170B4
:10B10000418861808168A16001792171C168E16035
:10B1100001692161416961618069A06138BD0000F8
:10B1200010B504461C21094801F062FB08B1FFF785
:10B130001BFC00231C222146044801F097FB002839
:10B1400003D0BDE81040FFF70FBC10BD442C002019
:10B15000FFF7D8B9014901607047000000F007000F
:10B1600070B5174C0F20217801EB410104EBC102AF
:10B170001449536912F8045F4968012D0ED0032D5C
:10B180000BD14FF08050006980B2B3FBF0F008445F
:10B1900028DF002801D10121A17070BD080351688A
:10B1A00056690D1A3118926818441044B5F5805F3D
:10B1B00002D2AA0829DFECE74FF4806229DFE8E732
:10B1C00068300020082C002000EB400205480021D8
:10B1D00000EBC200032201718160C0E9042181619A
:10B1E000C1607047683000202DE9F041134C069E85
:10B1F00065780A2D1FD027783D44EDB20A2D01D382
:10B200000A3DEDB205EB450504EBC5052871AA61C1
:10B21000D1E90001C5E90401C5E90236A1780020A1
:10B2200021B9FFF79DFF112800D100206178491C4A
:10B230006170BDE8F0810420FBE700006830002069
:10B240002DE9F05F2648C168F1B3DFF898B00E68C9
:10B250008146DBF800400769C078E11B21F07F459B
:10B26000ED1CB0B9DFF880804FF48030C8F844039B
:10B27000C8F804031120FFF7A7F91120FFF7AFF971
:10B280004FF0010AC8F800A02F20FFF7FFF889F857
:10B2900003A0B54200D23546124BE8193C3320F0EA
:10B2A0007F401860DBF800105A46091B21F07F41EF
:10B2B000001B20F07F40C91C81420FD91068186024
:10B2C0002F20FFF7E3F800E004E0BDE8F05F112075
:10B2D000FFF790B9BDE8F05F01F080BBBDE8F09FDB
:10B2E000202C0020041501400010014010B5044638
:10B2F00012B11088002211E04FF6FF70FAE7030A3E
:10B3000043EA0023A05C5840C0F30313584080EA8E
:10B31000003080B2C3B280EA4310521C8A42EED39E
:10B3200010BD000010B5042816D20C4900EB4002F5
:10B3300001EB820351F822209C685AB111F8302F9A
:10B34000521E0A7000F00CF8201F00F089FD08B1B1
:10B35000FFF70AFB002010BD072010BD4C32002073
:10B3600000EB40020448002140F8221000EB82006C
:10B3700081604160704700004C32002030B5164CAF
:10B3800087B01648E16801F033FA08B1FFF7ECFA2C
:10B390001248E268083800234168083001F066FA74
:10B3A000050015D1142101A8FFF7F1F800208DF850
:10B3B00004000A480DF1040C20388088ADF806001E
:10B3C000E0680490059800909CE80F00FFF708FEE5
:10B3D00007B0284630BD0000A43100206C2C0020AE
:10B3E000032161F3070008B50549064B898861F31D
:10B3F0001F400ECB0094FFF7F3FD002008BD0000B6
:10B400004C2C0020A8310020012138B561F3070041
:10B410000649074B898861F31F404FF440518C68FF
:10B420000ECB0094FFF7DCFD002038BD4C2C002033
:10B43000A831002000B58BB004A8FFF759FE08988A
:10B4400000280CD0079860B107990A980844002199
:10B45000CDE90010089880080290684618DF0BB00C
:10B4600000BD4FF440508068C0F5F421C1F30C02D8
:10B47000891A00EB5100EAE700B58BB004A8FFF78A
:10B4800037FE089800280FD0079878B107990A98D6
:10B490000844032100914FF4F421CDE901100898EC
:10B4A00080080390684618DF0BB000BD4FF4405091
:10B4B0008068C0F5F421C1F30C02891A00EB510039
:10B4C000E7E7080001D0FFF74FBA704700B587B033
:10B4D0001422074901A8FFF741F805980DF1040C63
:10B4E00000909CE80F00FFF77BFD07B000BD000057
:10B4F00050D4070070471FB503230093CDE9010125
:10B5000090080390684618DF04B010BD1FB50123F2
:10B510000093CDE9010190080390684618DF04B05C
:10B5200010BD000070B5050004D0287A800703D054
:10B53000102070BD0E2070BD144C6078032803D01D
:10B54000042801D0052801D0082070BD6868E16892
:10B550008600A0683044884204D94FF0FF30A060D4
:10B560000C2070BD00F062FA0028FAD1A9683246BA
:10B57000A368206901F07AF90028F2D1A16831446A
:10B58000A160E2689142ECD0092070BD4C2C0020F3
:10B59000094810B54078072801D0082010BD074899
:10B5A0000068FFF749FB08B1FFF7DEF9044880683F
:10B5B000BDE81040004700004C2C00204CD4070090
:10B5C0003432002010B50D4C6078052813D1D4E931
:10B5D000020188420FD10620607000F027FA00288F
:10B5E00008D12069E168406800F092F8002801D194
:10B5F0000721617010BD082010BD00004C2C0020F8
:10B60000FEB51D4E1D4C06F11800002507C88DE83B
:10B610000700A570A58004F12001684601F012F929
:10B6200008B16570FEBD15494FF440502031806867
:10B630004860216AA161C0F5F421C1F30C02891AA6
:10B6400000EB51000D490E4A1831486000210A48AC
:10B65000FFF740FA08B1FFF787F900224FF47011A5
:10B660003068FFF7A9FA08B1FFF77EF90120A5605D
:10B6700060700020FEBD00004CD407004C2C002060
:10B6800011BA070010B5094C0820A16801B110BD1E
:10B6900061780429FBD1A178054800F047F810B182
:10B6A0000021A17010BD0521617010BD4C2C00203F
:10B6B000B43100202DE9F041134C0746607803288F
:10B6C00005D0042805D008252846BDE8F0810420CF
:10B6D0006070A06808B10820F7E700F0A7F905003E
:10B6E000F3D178688600A0788119802901D90920D2
:10B6F000EBE7064AB96810443246FEF72FFFA07800
:10B700003044A070E0E700004C2C0020B431002051
:10B7100010B50022FFF7EAFD03490988884201D0ED
:10B720000B2010BD002010BD4032002070B5002558
:10B730000C290ED343180189044600EB4101581A25
:10B740000A38C2B21948022A027002D30A318B4267
:10B7500001D2092070BD1648FEF700FF4FF01021FE
:10B760004FF6FF70B1F88020824202D023889342C6
:10B7700019D1B1F88210814202D06088884212D17A
:10B7800020894FF6FE724FF44053A8420BD904EBC8
:10B7900045014989914204D09E896D1CB6B2B142DF
:10B7A000F3D1002070BD0B2070BD0000742C002070
:10B7B00040320020084910B5A1F1200001610221AA
:10B7C0004170C168203001F013F8002803D0BDE8B3
:10B7D0001040FFF7C9B810BD6C2C00200C4910B503
:10B7E000A1F118000161022141704FF440508068BE
:10B7F000C0F5F420C0F30C01401A4108044800F0E1
:10B80000F7FF002803D0BDE81040FFF7ADB810BD2A
:10B81000642C002001494861704700004C2C002036
:10B820002DE9F04188B06846FFF762FC03980028D4
:10B830002BD0069A00F580504FF48051904227D9C2
:10B84000A2F5805044081046039A00EB440687187E
:10B850004FF440500D46806801EB440890420ED2F0
:10B8600004F5805004220146FFF750FE00280CD159
:10B87000294604220846FFF749FE002805D1BA1BD5
:10B8800023464146304600F038F808B0BDE8F08164
:10B89000039A0698FFF73AFEF7E730B58FB002A893
:10B8A000FFF726FC0598002817D0089A00F580506D
:10B8B0004FF48051904216D9A2F5805043081046AB
:10B8C0004FF44054059AA468059D024400EB4300E0
:10B8D00001EB4301AC4202D20E200FB030BD121A70
:10B8E00000F00BF8F9E70BAB032083E8070005989D
:10B8F00080080E900BA818DFEFE72DE9F0411C46F9
:10B9000017460D460646FFF7F6FD002818D0B5F598
:10B91000805F07D92346291B301B1A46FFF7EDFF2E
:10B9200000280DD13A4629463046FFF7EFFD0028A2
:10B9300006D13A4629463046BDE8F041FFF7DBBD67
:10B94000BDE8F08170B542682848D2E90043D2E9E9
:10B950000212C0E90212C0E900430078440701D591
:10B96000840705D19C0703D18C0701D1940701D02E
:10B97000062070BD1E4D0B441A44EA60B1F5A04F7D
:10B980001AD81A4CC3074FF4405104F190040AD05E
:10B990008868C0F5F42090420ED3164820601648FF
:10B9A0006060164813E08968C1F5F421C1F30C0307
:10B9B000C91AB2EB510F01D90C2070BD104921609A
:10B9C00010496160800701D50F4800E00F48A06072
:10B9D0006878012802D00826304670BD00F026F8AD
:10B9E0000600FAD12168E8688847F5E7A43100200D
:10B9F0004C2C0020B5B70700CDB4070009B40700F0
:10BA0000DDB70700F5B40700E1B307007DB3070019
:10BA100068B5054E01253570052565F307000094CE
:10BA2000FFF7DEFA68BD00004C2C00200C4810B572
:10BA3000007808B1082010BD0A4C2068FFF7FCF818
:10BA400008B1FEF791FF00224FF470112068FFF754
:10BA5000B3F8041E01D0FEF787FF204610BD00009A
:10BA60004C2C00204CD4070010B50024E0B2FFF7A6
:10BA700059FC641C042CF9D3BDE8104000F08EB9C9
:10BA80000D4910B5002081F830000446E0B2FFF700
:10BA900067FC641C042CF9D30848FFF7BBFE00F0D8
:10BAA000AFF908B1FEF760FF054800F095F908B15D
:10BAB000FEF75AFF002010BD4C320020C3B407002F
:10BAC00039C907000E4910B54A788C780023A24284
:10BAD00012D0521CD2B24A70022A00D14B70084ACE
:10BAE0004B78183252F8232002600869104420F085
:10BAF0007F400861012010BD0360002010BD0000E0
:10BB0000202C0020C02808D00649DB2807D0CB69AC
:10BB10004A6A9854521C4A62704700F02DB8024895
:10BB200048607047782C00202DBB070010B50B4CE7
:10BB3000C02808D021464A6ACB69511CDC2805D0B0
:10BB4000DD2806D104E000F017F804E0C02000E092
:10BB5000DB20985461620248606010BD782C0020A0
:10BB600005BB0700C02802D1024901484860704760
:10BB700005BB0700782C0020084B30B45A6A002A15
:10BB800009D0DC68002C06D00020D9695862D86141
:10BB9000A44630BC604730BC70470000782C0020C1
:10BBA0000020704707480021074A017002F597609E
:10BBB00002600222C0E90121C1600161416181612D
:10BBC00008467047752C0020A0320020F0B5184CB4
:10BBD0008446A16851B365691020691A01F0010318
:10BBE00026681A460121972713FB07F706EB8707FC
:10BBF000674506D1A56901FA03F675400020A561E5
:10BC000003E021EA03039D42EDD1A56921EA030384
:10BC100001FA02F635420AD1A268002A07D0521E64
:10BC2000A2606268521C62601A46F1E70420F0BD0F
:10BC300058370020074A0121138A12689943972335
:10BC400011FB03F14FF4167303EB810150500020F8
:10BC5000704700005837002070B5D8B1D1B10F4AF5
:10BC6000D368CBB15B1ED360936897265B1C93604F
:10BC7000536914681D46734304EB830606604FF452
:10BC8000167000EB8300205808600120A843506123
:10BC9000002070BD0E2070BD042070BD58370020FC
:10BCA00010B5E9B100220A60104A5368E3B1B0F55B
:10BCB000167F17D85B1E5360D0689723401CD06056
:10BCC00010691468434304EB83030B60012101FAFC
:10BCD00000F493698143234393610020116110BDF7
:10BCE0000E2010BD0C2010BD042010BD58370020C0
:10BCF000024900200870FEF7C7BF0000782C002022
:10BD00000149C86000207047782C00203EB50A4CDD
:10BD1000207808B100203EBD084A062307CA8DE8F6
:10BD20000700074A00216846FEF7B4FF0028F2D159
:10BD3000012121703EBD0000782C002088D407002E
:10BD400055CD0700044AC2E90701002050620348AC
:10BD50005060002070470000782C002065BB070071
:10BD600010B538B10B4A1378012B05D0022B0FD038
:10BD7000082010BD102010BD00239361C2E904010A
:10BD8000022010700448906001F008F9002010BDF6
:10BD9000042010BD782C002069CC07000C4810B599
:10BDA00000218160C160FFF7FBFE08B1FEF7DCFDFA
:10BDB000FFF79EFF08B1FEF7D7FD06480068FEF7C3
:10BDC0003BFF042802D10020FEF7CEFD002010BD6D
:10BDD000A02C002094D4070010B504460648C46087
:10BDE0000648FFF78DFF08B1FEF7BEFD0CB100203D
:10BDF00010BD0E2010BD0000A02C0020A9CC070013
:10BE000070B5144C0020144AE061206260626070DA
:10BE1000207001206061A061A07001460F48FEF70C
:10BE200059FE78B9FFF7BEFE00280CD1FFF76EFF70
:10BE3000002808D14FF4167504F110012846FFF7C9
:10BE40002FFF08B1032070BD29462069BDE870406E
:10BE5000FFF778BFA02C0020A5BE070094D40700F0
:10BE6000001FFFF7B3BE000038B50D46040014D024
:10BE70009DB10B49002000904A7862B14870694634
:10BE80002046FFF7E9FE009A921F00922A8021685F
:10BE9000091D216038BD042038BD0E2038BD0000CA
:10BEA000A02C0020022001F0D7B8017842788078D9
:10BEB00011440844C043401CC0B27047F8B51A4C46
:10BEC000207800282ED0206928B10026E06820B113
:10BED000002526B110E00126F8E70125F9E76846BC
:10BEE00052DF052803D020B1FEF73EFD04E0012615
:10BEF00002E021690098884785B96088ADF80000A4
:10BF00006946A06861DF052803D020B1FEF72CFD4B
:10BF100004E0012502E0D4E902018847002EDED0CA
:10BF2000002DD6D0F8BD0000D02C0020800701D015
:10BF300000207047012070472DE9F047DFF8ACA0E2
:10BF4000DAF80C009AF8004080469AF80460DAF8B3
:10BF50000890DAF810703AE009EBC4052A7833E06B
:10BF600002EB42016B68521C03EBC101AB78D2B209
:10BF7000934200D100220B78022B02D0032B23D155
:10BF80001FE0D1F804C00346014603E0614503D039
:10BF90000B46C969C1B1F9E7B1B18B4205D1C0699E
:10BFA00018B9134F0126BE600027D1F800C0C96937
:10BFB000D96149B10B6863440B6005E00174C06945
:10BFC00000E000210028F9D169789142C8D1641EAF
:10BFD000E4B2C1D2CAE903078AF80460404502D03E
:10BFE0000120BDE8F0870020FBE70000202C0020A6
:10BFF000001001402DE9F04705462F4800268046F5
:10C000000778D0F80C904BE0D8F8080000EBC70494
:10C0100040E002D02846ED691EE02078616800EB20
:10C020004002401CC0B201EBC2012070A2789042D5
:10C0300000D126700A784868012A2DD1027C5ABBAB
:10C040008A684260CA6882600A69C260496981611F
:10C0500098F8041001B146604268D8F81030DFF853
:10C060005CC0D11A21F07F41614502D2826811443F
:10C0700006E0991A826821F07F418A4202D9511A5A
:10C08000016000E006604660012186600174C661BF
:10C0900000F024FF002DBCD1207861788842BCD10B
:10C0A0007F1EFFB2B0D2D8F80C10494502D0012053
:10C0B000BDE8F0870020FBE7202C0020FFFF7F0079
:10C0C0001CB5484801680026B12950D0002511242C
:10C0D000142701222046009600231146019600F005
:10C0E0009DFA641CBC42F4D93F4F4FF4F010386005
:10C0F0004FF010204069B0F5F42F02D00020FEF779
:10C1000033FC4FF080500069B0F5805F02D0002012
:10C11000FEF72AFC354B364A05210020FEF704FDC8
:10C1200008B1FEF721FC0323CDE9006300221020B3
:10C13000114600F073FAFEF7C5FFFEF703FF2A4E23
:10C140004FF40024361DA8B13460FEF70AFF08B191
:10C15000FEF70AFC85F00100FEF76AFE00F004FD20
:10C16000FEF71CFF08B1FEF7FFFB3C6008E001256D
:10C170000660ACE785F00100FEF75AFE00F0F4FC23
:10C18000194808300068000C10F0010F05D000209D
:10C1900028434FF4405506D101E00120F8E7A86894
:10C1A000FEF788FE30B93460FEF70EFF08B1FEF7E7
:10C1B000DBFB3C60A868FEF77DFE28B1FEF7C2FEFF
:10C1C00010B9A868FEF794FEBFF34F8F09480168C5
:10C1D000094A01F4E06111430160BFF34F8F00BFD2
:10C1E000FDE700001C0500400805005011AB0700EA
:10C1F000E82C00200CED00E00400FA0531B540F217
:10C20000E73404E0401E00902046FEF703F9009852
:10C210000028F7D138BD4907090E002806DA00F0DA
:10C220000F0202F1E02282F8141D03E000F1E02287
:10C2300082F8001400F01F020121914040098000A3
:10C2400000F1E020C0F88012C0F800117047000033
:10C250002DE9F0411E4C07460D46E07E10B1082046
:10C26000BDE8F08107B91B4F787F20773846FEF78D
:10C27000A3FD6560386920602800174E4FF0000567
:10C2800016D0397F207F48B1C6F81051C6F820512A
:10C29000C6F82451C6F84451104804E0C6F81C51B1
:10C2A000C6F844510E48C6F804030220FFF7B3FF56
:10C2B000207F08B1082000E00420C6F80005E575DD
:10C2C0002576A5750120E076A5760020C8E7000058
:10C2D000483000200CD4070000200040100302006A
:10C2E000800002002DE9F0411F4B1C7F3CB14FF450
:10C2F0000052B2EB104F02D01020BDE8F081D3F80D
:10C3000004C00022194D4FF404764FF40177BCF1BC
:10C31000000F05D014B1C5F8086301E0C5F8087333
:10C3200093F817E0BEF1000F10D01A7E52B1BCF1A5
:10C33000000F05D014B1C5F8046301E0C5F804731B
:10C340001120DAE718610122197604E0D975002579
:10C35000D8605D761D761CB1BDE8F04100F066B88E
:10C36000BDE8F04100F014B8483000200020004043
:10C3700010B5064C207F002806D1A07E002803D1EE
:10C3800000F072FB0120A07610BD000048300020B4
:10C390002DE9F05F234DA87E104301D100F064FB2E
:10C3A000214C686830B14FF40170C4F804030020D8
:10C3B000BDE8F09F4FF000094FF4A27AC4F8449111
:10C3C0004FF4927BA8465946204600F065F9054691
:10C3D0004FF48471204600F05FF90746514620462D
:10C3E00000F05AF9064647EA06012943EBD055EA20
:10C3F000060007D100F010FB98F8171098F8190004
:10C400008142E0D888F817900DB10320D0E70EB133
:10C410000F20CDE798F81A10012009B12060C6E777
:10C420006060C4E748300020002000402DE9F05F44
:10C43000204C00264FF48873C4F810614FF4A275A5
:10C44000C4F84461C4F83405C4F838158AB1D4F886
:10C45000000240F02000C4F80002DFF85C80D8F849
:10C46000040048B14FF40470C4F804030020BDE890
:10C47000F09F01202060F0E79A46A9464FF4927B96
:10C480005146204600F013F905464946204600F083
:10C490000EF907465946204600F009F93D43054389
:10C4A000EED088F8176008B10320E0E7002FDDD058
:10C4B0000F20DCE700200040483000202DE9F04745
:10C4C000204D0246287F38B14FF40050B0EB124F98
:10C4D00002D01020BDE8F08700F078F808B11120F4
:10C4E000F8E7A9750023AA60AB82287F28B3164C11
:10C4F00000264FF490709846C4F820314FF4AC7386
:10C50000C4F85881C4F84425C4F848150121A16035
:10C51000696881B9824699465146204600F0C7F8BD
:10C5200007464946204600F0C2F80743F4D000B160
:10C530000F2685F816803046CCE7BDE8F04700F0BE
:10C5400005B8000048300020002000402DE9F05FD1
:10C550001C4F00254FF48E7A2E46C7F81C514FF021
:10C560000108C7F8088000F053FD174CB815616842
:10C5700079B123E05F465146484600F08DF810B986
:10C58000A08AB842F7D1A08AB84204D000F040FD9A
:10C5900001E08346B946A08AA17D8842EAD3A08AF9
:10C5A000584501D10F2508E04F465146384600F066
:10C5B00073F80028F9D0C7F80C80A6752846BDE8A6
:10C5C000F09F000000200040483000200248807D9D
:10C5D000002800D0012070474830002070B50C4C76
:10C5E0000C480025217FC0F8005562685AB109B196
:10C5F000094901E008498C39C0F808134FF0E021DF
:10C600000420C1F8800100F057F8E576656070BD40
:10C6100048300020002000401003020030B541EAFD
:10C620004201DDE9034541EA8301800041EA04213A
:10C6300000F1A04041EA0541C0F8001730BD30B517
:10C6400041EA4201DDE9034541EA8301800041EA14
:10C65000042100F1A04041EA0541C0F8001730BDB7
:10C660001CB5002100910B4601220191FFF7E7FF65
:10C670001CBD1CB500220B46009211460192FFF72B
:10C68000DEFF1CBD1CB5002100910B46012201916B
:10C690001146FFF7D4FF1CBD4058002800D00120F0
:10C6A0007047D0F80403084000D00120704740587C
:10C6B000002800D00120704770B513484FF0FF31BB
:10C6C000D0F80C25D0F81465D0F80855D0F81045EE
:10C6D000C0F80C15C0F81415C0F80815C0F81015EE
:10C6E0001046FFF7BDFF3046FFF7BAFF601C02D0CF
:10C6F0002046FFF7B5FF681C04D02846BDE870400F
:10C70000FFF7AEBF70BD00000020004070B51A4DAD
:10C7100027E0002404EB440005EB80000168E9B148
:10C7200001290ED0032907D0042902D005290FD1F1
:10C730001CE0FEF7F7FE0BE081684160FFF702F9AD
:10C7400003E0FEF7B7FFFEF79DFF08B1FEF70CF917
:10C75000E0B2FEF7E7FD08B1FEF706F9641C042C11
:10C76000D8D395F830000028D3D170BDFEF72AFF4A
:10C77000BDE87040FEF70CBF4C320020064803783D
:10C78000012B03D1012901D102210170100001D038
:10C79000FEF7EAB870470000402C002070B5124C3C
:10C7A0001E4615466078012902D0032914D107E0FE
:10C7B000052811D163697BB13246294604200AE07D
:10C7C000022809D1094840688047032060706369E6
:10C7D00013B1324629469847280003D0BDE870407F
:10C7E000FEF7C2B870BD00004C2C0020343200208F
:10C7F00008B50B460022014603200092FEF7F4FC28
:10C8000008BD000070B50D4E00240D48746025462B
:10C810000470447084702846FEF7D6FC6D1C0A2D07
:10C82000F9D3074934600020F431746041F82040A6
:10C83000401C0328FAD3002070BD0000082C002003
:10C8400068300020074B1A68032A08D00A6006499E
:10C85000006841F82200521C00201A607047042032
:10C8600070470000082C00205C310020F8B5074616
:10C870001D4616460C460846FFF758FB58B160198E
:10C88000FFF754FB38B13346224639460120009564
:10C89000FEF7AAFCF8BD1020F8BD000070B5244CCE
:10C8A00006460022A078012841D100232146A3702A
:10C8B0000D78022E05EB450001EBC00103D0032EDD
:10C8C00035D10D202EE01B484668761C46608968ED
:10C8D000B1EB063F15D843606078401E6070681C5D
:10C8E000C0B220700A2801D30A38207005EB450039
:10C8F00004EBC0011046091DFEF742F82846FEF77A
:10C9000063FC6078002812D0A07800280FD1FEF7D1
:10C9100027FC00280BD0112809D0217801EB410118
:10C9200004EBC101BDE87040091DFEF729B870BDD8
:10C9300068300020082C00203EB50020ADF804002F
:10C94000009001A96846FFF78FFA98B9009802ACE9
:10C9500003780420DBB11F4A92F83010032909D074
:10C960005FF0000101EB410552F825508DB1491CE3
:10C970000429F7D30099002908D0002806D00846DA
:10C98000FFF76EFA002801D0FDF7EEFF3EBD07204D
:10C99000F0E701EB4100217042F8203092F83000BE
:10C9A000401C82F83000BDF804004FF0FF3101EB6D
:10C9B00090019DF8080000EB400002EB8000064A61
:10C9C00041600099091D816000210846FEF70CF8BE
:10C9D000D0E700004C3200200DC7070070B50126DB
:10C9E00070044FF0E0210025C1F88001084C401090
:10C9F000C4F84803C4F8080366602F20FDF746FD1D
:10CA0000A660044C2F202561FDF740FDE57070BD48
:10CA100000100140202C002009480A490022C37D53
:10CA2000C1F8082143B1D1F81815437EC268D1542A
:10CA3000417E491C41767047D1F8180570470000C7
:10CA400048300020002000401FB501228DF808006A
:10CA500004488DF800200191D0E900126846904703
:10CA60001FBD00004830002004480021C0F82411F8
:10CA7000C0F808110121016070470000002000404B
:10CA80002DE9F047374C054689460F464FF0000820
:10CA90004FF41676042958D92878410655D5010651
:10CAA00053D5697801F00F020E2A4ED10144AA78BD
:10CAB000E8781044084410F0FF0F46D10022B91E58
:10CAC0002846FEF713FCE91931F8021C88423CD1D4
:10CAD0002878012700F007016069C2B28A4229D193
:10CAE000401C00F007006061FDF716FF67704846C4
:10CAF000FFF7A0F808B1FDF737FF1A4930461031AB
:10CB0000FFF7CEF840B1042802D00020FDF72CFF3B
:10CB100014480521283001E031462069FFF712F959
:10CB200008B1FDF721FFE168002918D04046BDE8B3
:10CB3000F047084731462069FFF704F908B1FDF7CF
:10CB400013FFBDE8F047FDF7E7BE31462069FFF768
:10CB5000F9F8002803D0BDE8F047FDF705BFBDE8B0
:10CB6000F0870000A02C002010B5064A14210820F0
:10CB7000FDF79AFF002803D0BDE81040FDF7F4BE92
:10CB800010BD0000F82E002010B50121202803DA86
:10CB90001D4A8140114004E0402803DAA0F1200240
:10CBA000914041B1002809DA00F00F0101F1E021C4
:10CBB00091F8141D06E042F2010010BD00F1E021E1
:10CBC00091F800144909082914D299B1012911D00A
:10CBD00004290FD005290DD00C4A946800F01F03DA
:10CBE00001219940400944B152F820300B4342F8EA
:10CBF000203007E042F2020010BD800000F1E0208A
:10CC0000C0F80011002010BDFC06FFBC94370020C6
:10CC100010B5064CA1692069405CFEF77DF800283C
:10CC200002D1A169491CA16110BD0000782C00202F
:10CC300010B50B4CA1692069405CC02803D0DB28EB
:10CC400003D0042010BDDC2000E0DD20FEF764F8F6
:10CC50000028F7D1A169491CA1610249A16010BD5A
:10CC6000782C002011CC070010B5C020FEF754F836
:10CC7000002805D103498A69002A01D1024A8A6045
:10CC800010BD0000782C002011CC070010B5DB206F
:10CC9000FEF742F8002802D1024A0149916010BD16
:10CCA00031CC0700782C002070B510F0FF0009D0BF
:10CCB000012802D0022846D13BE0BDE870400120A7
:10CCC00000F0CAB9224C042A22D34B7813F00F008B
:10CCD00007D00E281CD1BDE8704008461146FFF76A
:10CCE000CFBE0878C2188B78C9781944114411F066
:10CCF000FF0F4FF000020BD1C0F3C201207E401C99
:10CD000000F00700884203D1A270032000F0A4F9CC
:10CD100020694FF4167508B1294610E00C492846E1
:10CD20001031FEF7BDFF40B1042802D00020FDF70E
:10CD30001BFE07480521283001E029462069FFF73E
:10CD400001F8002803D0BDE87040FDF70DBE70BDAE
:10CD5000A02C002070B505460078104C032804D1A3
:10CD60002078022818D100F019F92878042813D166
:10CD7000E16919B1D4E90802824208D3E368002BC3
:10CD80000AD00748626AC068BDE870401847287931
:10CD90006168BDE87040084770BD0000782C002035
:10CDA00070D407001CB5034901910091694660DF0A
:10CDB0001CBD0000002C002070B50E460546144630
:10CDC00014211046FDF7E3FB0120208000212161A2
:10CDD00021732672657205B1A072002070BD10B576
:10CDE00011B10020FDF7C0FDBDE81040FFF766B8A7
:10CDF0000021024A0846FDF7F7BD0000DFCD07001D
:10CE0000FDF7A0BD30B409B18C0702D0072030BCBB
:10CE10007047074C0125A16062800649636010DFFE
:10CE20000028F4D1257030BC1620FFF7ADBE0000FD
:10CE3000D02C002001CE070018B103490861002062
:10CE400070470E2070470000D02C0020FFF726BD51
:10CE50002DE9F84F204C00256846D4E903B6FEF7CB
:10CE600031FE8046FFF768F80746A946B8F1000F83
:10CE700025D00023009ACC46E06819E007680146F7
:10CE8000974202D9BA1A026014E0C1F800C0D1F882
:10CE90000C80D21BC8693B448A46B8F1000F07D00A
:10CEA000F71827F07F47C1E90178CAF81C500D46F2
:10CEB0000028E3D1E0602846FFF79CF804E028460C
:10CEC000FFF798F800B917B15846FEF7B9F984F89A
:10CED0000490BDE8F88F0000202C00200D4B10B509
:10CEE000D96831B102680C68A24204D8A21A0A605B
:10CEF000C161D86010BD0B4603E00B46C969121B27
:10CF000021B10C689442F8D3A41A0C600260C1618C
:10CF1000D86110BD202C00202DE9F0411D4DEC689A
:10CF2000002C35D01C48002700682969B846401AF3
:10CF300020F07F462068B04215D82246361A0744B2
:10CF4000E469107C68B182F810806B6933B1D2E972
:10CF50000501984728B1FDF707FD02E0D2E9051069
:10CF60008847002CE6D16978A878814206D1401C18
:10CF7000C0B2A870022801D185F802800548A978BE
:10CF8000183040F82170BDE8F0411420FDF732BBA5
:10CF9000BDE8F081202C00200415014070B5174D2C
:10CFA000174E184C12E0A1692069415CC02903D0DA
:10CFB000A169405CDB2803D1A068A84200D1A6602B
:10CFC000A0688047042817D0112815D0A06961698E
:10CFD0008842E8D30C48A060FFF746FE00280BD13A
:10CFE00001202070E368002B06D00848A26921695F
:10CFF0000068BDE87040184770BD000011CC070004
:10D000008DCC0700782C002069CC070070D4070075
:10D01000064A0020C2F81C010548838A8168C95C61
:10D02000838A5B1C8382C2F81C1570470020004075
:10D03000483000201FB500218DF8080005488DF804
:10D040000010826801928175D0E90012684690470D
:10D050001FBD00004830002070B5284C284B2578B3
:10D060008DB12246012D116AD2691BD0022D44D107
:10D0700018B302282FD003283FD1207E401C00F097
:10D080000700A06134E0002837D11868FDF7D4FD0F
:10D0900008B1FDF769FCA16800292ED0A078BDE891
:10D0A00070400847012828D11046891DFEF758FE18
:10D0B00008B1FDF759FC02201BE000200246606227
:10D0C00044F6DF711868FDF777FD002815D0BDE83C
:10D0D0007040FDF749BC606A052807D0401C6062BB
:10D0E000BDE870401046891DFEF73ABE0120A070D1
:10D0F0000020BDE8704000F005B870BDA02C0020F5
:10D1000094D40700024908700020FFF7A5BF000073
:10D11000A02C00201CB50178134C012907D002294E
:10D1200014D000291FD103208DF8000018E004213D
:10D130008DF800104068012100788DF804000A483D
:10D14000401CFFF7CFF80120A07009E002218DF804
:10D150000010C068019004480121401CFFF7C2F88C
:10D160006168684688471CBD002C00202DE9FF41FE
:10D170003E4D4FF400712846FFF793FA01273C4CCF
:10D180004FF40178002600B34FF492712846FFF760
:10D1900083FAD0B1C5F82461C5F80883A07E00B930
:10D1A0006F6002208DF80000D5F88004C5F8800477
:10D1B0000390E07D8DF80800E0680190E675267622
:10D1C000D4E900126846904724E004212846FFF77E
:10D1D00068FAF8B14FF484712846FFF75DFAC8B1D8
:10D1E000FFF71AFCE07D617E884213D1227E3AB1BE
:10D1F000607EE168E2752269E2602676667607E085
:10D20000A07E00B96F60C5F80883E675607EE168AE
:10D21000FFF71AFC4FF48E712846FFF73DFA58B11C
:10D22000A18AA07D814202D2FFF7F2FE04E0C5F898
:10D230001C6108B1FFF7FEFE4FF4A2712846FFF70C
:10D240002BFA00280FD0C5F84461A07E00B12F60F2
:10D25000E07D002807D0E675607EE16804B0BDE897
:10D26000F041FFF7F1BBBDE8FF8100000020004066
:10D27000483000207FB5334C4FF492712046FFF7C1
:10D2800016FA314D0026B0B1C4F8246102208DF8A1
:10D290000000D4F88004C4F880040390D4F83C055E
:10D2A0008DF80800E8680190EE752E76D5E9001239
:10D2B000684690471FE04FF488712046FFF7F7F962
:10D2C000C8B1C4F81061D4F83C05E97DC0B2814210
:10D2D00011D12A7E5AB1E968D4F8003223F0200334
:10D2E000C4F80032EA752A69EA602E7601E0EE752C
:10D2F000E968FFF7A9FB4FF4A2712046FFF7D7F9C1
:10D3000050B1C4F84461E87D30B1EE75D4F83C0505
:10D31000E968C0B2FFF798FB4FF490712046FFF721
:10D32000C6F900280CD0C4F82061A87D002807D0D9
:10D33000D4F84C0504B0C0B2BDE87040FFF77ABE27
:10D340007FBD00000020004048300020EFF3058042
:10D35000C005C00D13D0103840B2002806DA00F026
:10D360000F0000F1E02090F8140D03E000F1E02040
:10D3700090F800044009022803D0062803D00220B8
:10D380007047002070470120704742788378521C14
:10D39000D2B2934200D100220378934201D10020FF
:10D3A00070470A704168407800EB400001EBC00014
:10D3B0007047000010B5074C48DF08B1FDF7D4FAFC
:10D3C000FDF762FB2078022803D0032801D004284F
:10D3D000F2D110BD402C0020010000070200000027
:10D3E0000000000000000000000000000600000037
:10D3F0000800000007000000050000000000000019
:10D40000000000000000D601060000000600000039
:10D4100008000000070000000500000000000000F8
:10D42000000000000000D601060000007DC70700D4
:10D4300000000000000000000200000000000000EA
:10D440000000000000000000000000008431002007
:10D4500004000000000000000000000000000000C8
:10D46000000000009DC70700000000000000000051
:10D4700001000000000000000000000002000000A9
:10D480000000000000000000080605070000000082
:10D4900000509D0074370020B8D40700002C0020F5
:10D4A000E8000000F8A80700A0D50700E82C00203D
:10D4B000B82A000008A907000000000000000000D2
:10D4C000000000000000000000000000000000005C
:10D4D000000000000000000000000000000000004C
:10D4E000000000000000000000000000000000003C
:10D4F000000000000000000000000000000000002C
:10D50000000000000000000000000000000000001B
:10D51000000000000000000000000000000000000B
:10D5200000000000000000000000000000000000FB
:10D530000000000065BB070011CC070000000000E0
:10D5400000000000000000000000000000000000DB
:10D5500000000000000000000000000000000000CB
:10D5600000000000000000000000000000000000BB
:10D5700000000000000000000000000000000000AB
:10D58000000000000000000000000000000000009B
:10D590000000000000000000000000000090D00328
:020000041000EA
:0410140000A0070031
:020000041000EA
:0410180000E00700ED
:040000050007A4014B
:00000001FF
