:020000040001F9
:10C00000B04900208DC4010095C4010097C401000F
:10C0100099C401009BC401009DC401000000000000
:10C020000000000000000000000000009FC40100AC
:10C03000A1C4010000000000A3C40100A5C40100C8
:10C04000A7C40100A7C40100A5CF0100A7C4010037
:10C05000A7C40100A7C4010039CA0100A7C4010098
:10C06000A7C40100A7C40100A7C40100A7C4010020
:10C07000A7C40100A7C40100A7C40100A7C4010010
:10C08000A7C40100E5CB0100A7C40100A7C40100BB
:10C0900009CC0100A7C401000DCC0100A7C4010018
:10C0A000A7C40100A7C40100A7C40100A7C40100E0
:10C0B000A7C40100A7C401000000000000000000A8
:10C0C000A7C40100A7C40100A7C40100A7C40100C0
:10C0D000A7C40100A7C40100A7C40100000000001C
:10C0E0000000000000000000000000000000000050
:10C0F0000000000000000000000000000000000040
:10C10000000000000000000000000000000000002F
:10C11000000000000000000000000000000000001F
:10C40000DFF80CD000F078FA0048004785F301000F
:10C41000B0490020401E00BF00BF00BF00BF00BFEA
:10C4200000BF00BF00BF00BF00BF00BF00BF00BF14
:10C4300000BF00BF00BF00BF00BF00BF00BF00BF04
:10C4400000BF00BF00BF00BF00BF00BF00BF00BFF4
:10C4500000BF00BF00BF00BF00BF00BF00BF00BFE4
:10C4600000BF00BF00BF00BF00BF00BF00BF00BFD4
:10C4700000BF00BF00BF00BF00BF00BF00BF00BFC4
:10C4800000BF00BF00BFC5D170470000064880470D
:10C4900006480047FEE7FEE7FEE7FEE7FEE7FEE7A9
:10C4A000FEE7FEE7FEE7FEE731CC010001C4010034
:10C4B00040EA01039B0703D009E008C9121F08C026
:10C4C000042AFAD203E011F8013B00F8013B521EA6
:10C4D000F9D27047D2B201E000F8012B491EFBD21D
:10C4E00070470022F6E710B513460A46044619467F
:10C4F000FFF7F0FF204610BD30B50B460146002087
:10C500002022012409E021FA02F59D4205D303FA15
:10C5100002F5491B04FA02F52844151EA2F1010296
:10C52000F1DC30BD2DE9F05F0546002092469B46C8
:10C5300088460646814640241BE028464146474639
:10C54000224600F0FAF953465A46C01A914110D3D8
:10C5500011461846224600F0E1F92D1A67EB010852
:10C560004F4622460120002100F0D8F917EB0009C0
:10C570004E41201EA4F10104DFDC484631462A4624
:10C580004346BDE8F09F2DE9FE4F804681EA030057
:10C59000C00F0C46009021F0004123F00045B8EB9D
:10C5A0000200A94105D24046214690461C460B4652
:10C5B000024623F00040104347D0270DC7F30A007E
:10C5C000C3F30A510290401A019040286BDAC3F37A
:10C5D000130040F4801B0098924620B10023D2EB58
:10C5E000030A63EB0B0B01985946C0F14002504619
:10C5F00000F094F906460D4650465946019A00F05F
:10C60000ACF910EB08006141002487EA115284EA7A
:10C61000E7731A4340D0009A62B3019A012A4FEAA5
:10C62000075215DC001B61EB02014FF0004202EAE9
:10C630000752CDE90042001C41F5801132462B46DD
:10C6400000F0ACF903B0BDE8F08F40462146F9E7B1
:10C65000001B61EB0201001C41F5801300185B41D7
:10C660002018A2F5001747EB030140EAD570B61970
:10C670006D4111E06D084FEA360645EAC0754FEA94
:10C680000752001B61EB0201001C41F580114908B3
:10C690004FEA30000019514132462B4603B0BDE845
:10C6A000F04F00F06CB90098012240000023D0EB5D
:10C6B000020263EBE073009821464FEAE074B8EBA6
:10C6C000000061EB0401E9E783F000435BE781F0E0
:10C6D000004158E72DE9FE4F81EA030404F00044CD
:10C6E00021F0004100944FF0000B23F0004350EA8A
:10C6F00001045ED052EA03045BD0C3F30A54C1F3D1
:10C700000A552C44A4F2F3340194A0FB0254C1F363
:10C71000130141F48011C3F3130343F4801301FBAD
:10C72000024400FB034E840A970A44EA815447EA14
:10C730008357A4FB076802958D0A05FB07854FEA1E
:10C74000932C04FB0C542705029D4FEA065847EA38
:10C750001637B5EB08056EEB070C870E920E47EA0D
:10C76000811742EA8312A7FB0201B6EB0B0164EBCF
:10C7700000042B0D43EA0C335E1844EB1C50DA46E0
:10C780005146E7FB0201C5F313044FEA0B3343EABA
:10C7900014534FEA0432019C43EA0603A4F10C044B
:10C7A0000294009CCDE900B400F0F8F803B0BDE8B5
:10C7B000F08F00200146F9E72DE9F04D81EA0304EE
:10C7C00004F0004B21F0004514464FF0000A23F01E
:10C7D000004150EA050220D054EA01021DD0C5F301
:10C7E0000A570246C5F31303C1F31300C1F30A56F7
:10C7F00040F4801543F48013A7EB0608101BD646BF
:10C8000008F2FD3873EB050002D308F1010801E0DE
:10C8100092185B41B8F1000F03DA00200146BDE831
:10C82000F08D00204FF48011064684460EE0171B61
:10C8300073EB050705D3121B63EB050306434CEAB4
:10C84000010C49084FEA300092185B4150EA010799
:10C85000EDD152EA030012D082EA040083EA050116
:10C86000084305D0101BAB4106D20122002306E08D
:10C8700000224FF0004302E06FF0010253101AEB68
:10C8800006004CEB085110EB0A0041EB0B01BDE830
:10C89000F04D00F074B8C1F30A52C1F3130140F235
:10C8A000FF3341F480119A4202DA002001467047BA
:10C8B00040F233439A42A2F2334202DC524200F089
:10C8C0003CB800F02BB8000030B5041E71F1000434
:10C8D00004DB4FF00044404264EB0101141E73F18D
:10C8E000000405DB1C464FF00043524263EB040397
:10C8F000994208BF904230BD064C074D06E0E06803
:10C9000040F0010394E8070098471034AC42F6D396
:10C91000FFF77AFDC80C0200E80C0200202A04DBB5
:10C92000203A00FA02F1002070479140C2F1200342
:10C9300020FA03F3194390407047202A04DB203A81
:10C9400021FA02F00021704721FA02F3D040C2F12F
:10C9500020029140084319467047202A06DBCB1776
:10C96000203A41FA02F043EAE07306E041FA02F3AA
:10C97000D040C2F12002914008431946704710B5DB
:10C98000141E73F1000408DA401C41F100019218F2
:10C990005B411A4301D120F0010010BD2DE9F04D9B
:10C9A00092469B4611B1B1FA81F202E0B0FA80F2F0
:10C9B00020329046FFF7B2FF04460F4640EA0A00D5
:10C9C00041EA0B0153465A46084313D0114653EA35
:10C9D000010019D0C8F140025046FFF7AEFF0546EE
:10C9E0000E46504659464246FFF798FF084305D089
:10C9F000012004E020463946BDE8F08D00200543C3
:10CA000046EAE0762C4337430A986305E40AA0EB34
:10CA100008000022FD0A44EA47540A3002D50020EB
:10CA20000146E9E7010510196941DDE908450019EA
:10CA30006941BDE8F04DA2E72DE9FC5F0025DFF874
:10CA40003491A8464FF4807601242F46304603F0F7
:10CA500031F938B1D9F80403204203D0304603F04D
:10CA60001FF92543361D64007F1CB6B2082FEDD395
:10CA70004FF4BE74204603F01DF938B1204603F090
:10CA80000FF93D4845F00045D0F800803B4E15F0C9
:10CA9000FF0F14D0012700242F420CD009EB840192
:10CAA000D1F81005D1F81015C0F3042056F8242051
:10CAB000C1F3014190477F00641C082CECD3002D8A
:10CAC00056DA00200190401E4CE0701910F8501FFB
:10CAD00090F9000021F0C004401C38D0012000FA79
:10CAE00004FA1AEA090F32D04FEA911B204602F0ED
:10CAF0006FF856F82000009010B9BBF1030F26D153
:10CB00005146BBF1030F02D1019808430190A000E8
:10CB100000F1A040D0F800071AEA080FC0F3014066
:10CB200002D0022802D012E0032810D1BBF1030F7B
:10CB300007D102281AD00221204603F093F87F1C67
:10CB4000FFB2009818B1009A5946204690476D1CD4
:10CB5000042DBAD3002F0BD007480068404507D0FA
:10CB600080460198002781463D46AEE70321E3E772
:10CB7000BDE8FC9F0060004010050050DC2700204D
:10CB800000F01F02012191404009800000F1E020E7
:10CB9000C0F88012704700F01F0201219140400947
:10CBA000800000F1E020C0F80011704700F01F0283
:10CBB000012191404009800000F1E020C0F80012FE
:10CBC00070474907090E002806DA00F00F0000F14F
:10CBD000E02080F8141D704700F1E02080F8001478
:10CBE0007047000007480021C0F84011C0F8441108
:10CBF000C0F84811C0F84C11C0F80011C0F8041179
:10CC000003F048BB0010014003F0E0BA074810B53C
:10CC1000406830B18047002807D0BDE8104000F0E0
:10CC2000BDBFBDE8104002F0EBB910BD5821002097
:10CC300070B58D480023021D0178101D01240629BE
:10CC400007D115782D0704D10578C5F30315032DF9
:10CC500002D0062904D00FE0854E844D75670EE0A2
:10CC600015782D0708D10578C5F30315032D06D0D7
:10CC7000042D04D0052D02D0062909D010E04FF074
:10CC80008055D5F844527B4EC5F34235356002E0FD
:10CC900015782D0704D10578C5F30315032D02D0AF
:10CCA000062906D011E0744D2E6826F080762E609D
:10CCB0000EE015782D0708D10578C5F30315032D6F
:10CCC00006D0042D04D0052D02D006290AD011E08B
:10CCD0004FF08045C5F80C31C5F81031654D2D1F5A
:10CCE0002B6002E015782D0704D10578C5F30315F4
:10CCF000032D02D0062905D00CE05E4A03216432E0
:10CD000011600AE015782D0704D10578C5F30315E5
:10CD1000032D02D006290DD06AE0584A0521116082
:10CD2000564978310C60554908310B603F21121D7E
:10CD3000116002E0117809075AD10078C0F303109E
:10CD4000052855D14E4800684E4908604C48001DE2
:10CD50000068091D08604A4808300068091D08601D
:10CD600047480C300068091D0860454810300068CD
:10CD7000091D0860424814300068091D08604048D9
:10CD8000183000683F49203108603D481C30006879
:10CD9000091D08603A4820300068091D08603848BD
:10CDA00024300068091D0860354828300068091DD6
:10CDB000086033482C300068091D08603048303066
:10CDC00000683049403108602D4834300068091D42
:10CDD00008602B4838300068091D086028483C303E
:10CDE0000068091D0860264840300068091D086079
:10CDF00021487438016841F470010160BFF34F8F1E
:10CE0000BFF36F8F4FF01021D1F80002002803DB31
:10CE1000D1F80402002822DA1B4A14601B48046877
:10CE2000002CFCD01524C1F800420568002DFCD070
:10CE3000C1F8044201680029FCD013600168002990
:10CE4000FCD0BFF34F8F0C48F0380168104A01F452
:10CE5000E06111430160BFF34F8F00BFFDE70E4952
:10CE60000C48086070BD0000E00F00F00DF0ADBA96
:10CE700000C007403C050040FCED00E010560040BB
:10CE80000404001020C5004004E5014000E4014016
:10CE90000400FA050090D0036C21002070B51548FD
:10CEA00081880288914202D2491C818070BD002590
:10CEB000858011A000F080F80E4C1D491034A08828
:10CEC0000844206001F086FFA088B0F5287F02D2D8
:10CED000001DA08000E0A580154800220838A4218C
:10CEE000406800F0E9FE0028E0D0BDE8704000F0A6
:10CEF00055BE00008820002054696D65725F63682C
:10CF0000616E67655F6672616D655F70726F6365A4
:10CF10007373202D2D2D2D3E20646973706C617903
:10CF2000206F6E65206672616D650D0A000000005D
:10CF3000880902000C4810B5C1884288914202D28B
:10CF4000491CC18010BD0021C18008A000F034F848
:10CF500003F0E2F91248406800F0EEFE0028F1D03C
:10CF6000BDE8104000F01ABE8820002054696D65AD
:10CF7000725F636C6F73655F6C65645F70726F6323
:10CF8000657373202D2D2D2D3E207475726E206FCC
:10CF9000666620616C6C206C65640D0A0000000000
:10CFA000800902000348007F08B103F09DBB03F035
:10CFB00017BB0000342800200FB4054B10B503A99F
:10CFC000044A029800F0CAF810BC5DF814FB000097
:10CFD00087EF01005421002002E008C8121F08C199
:10CFE000002AFAD170477047002001E001C1121FEA
:10CFF000002AFBD1704700002DE9FF5FDDE9022028
:10D00000010DDDF838B0024318D044F61050A1F2FB
:10D01000FF3141430D140F98012820D0A5EB0B00E0
:10D02000401C5FEA000A4FF00004474EDFF81C91F5
:10D03000A046504616D5CAF1000728E00F980124F3
:10D0400043A2012808D0002100980F9BC0E90021CD
:10D05000C0E90243BDE8FF9F6FEA0B01F4E7CBF1A3
:10D060000000DEE7074612E0F80707D02246334605
:10D0700040464946FFF72EFB804689462246334606
:10D0800010461946FFF726FB04460E467F10002F78
:10D09000EAD1DDE90201BAF1000F42464B4602DA5D
:10D0A000FFF718FB01E0FFF787FB04460E4600225E
:10D0B000284BFFF709FC03D84FF0FF30014607E08B
:10D0C0000022254B20463146FFF75DFAFFF7E3FBD0
:10D0D000102409E0002C0ADB0A220023FFF722FAC1
:10D0E000019B30321A55641E50EA0102F2D1641CD1
:10D0F000019AC4F1110314440F9A012A03D00122AA
:10D1000008430DD10AE0084304D000204FF0110B72
:10D110000F9080E7A3EB0B056D1E0DE05B4504DD72
:10D120004FF0000205F1010504E003DA4FF00002C0
:10D13000A5F10105002AECD000980F99C0E9023151
:10D14000C0E9004586E70000000024400000F03FF1
:10D15000300000000000F0430000E03F2DE9FF4FE9
:10D1600095B09B468946064600250FE2252877D1D3
:10D1700000242746F84A0121059400E0044316F8EC
:10D18000013F203B01FA03F01042F7D130782A2802
:10D1900011D06FF02F033078A0F13002092A16D891
:10D1A000059A44F0020402EB820203EB42021044AF
:10D1B000761C0590EFE759F8042B0592002A03DA54
:10D1C000504244F40054059044F00204761C307838
:10D1D0002E2816D116F8010F44F004042A280DD089
:10D1E0006FF02F023078A0F13003092B09D807EB3C
:10D1F000870302EB4303C718761CF3E759F8047B57
:10D20000761C30786C280FD006DC4C2817D06828A4
:10D210000DD06A2814D104E0742810D07A280FD1D8
:10D220000DE044F400140AE044F4801401E044F4F6
:10D2300040147278824202D104F58014761C761C68
:10D24000307866280BD013DC582877D009DC00280A
:10D2500075D04528F6D04628F4D047281AD19DE14C
:10D2600018E0632835D0642879D0652812D195E17B
:10D27000702873D008DC6728F1D069286FD06E2839
:10D280000DD06F2806D1B5E073282CD0752875D045
:10D29000782874D05A46179990476D1C75E1C4F3ED
:10D2A0000250022809D003280DD0D9F80010042814
:10D2B0000DD00D6009F1040967E1D9F80010EA17F3
:10D2C000C1E90052F6E7D9F800100D80F2E70D70C1
:10D2D000F0E719F8041B8DF8001000208DF801000C
:10D2E000EA46012003E059F804AB4FF0FF30610734
:10D2F0004FF0000102D40DE008F101018846B94267
:10D300000FDA8045F8DB1AF808100029F4D108E09C
:10D3100008F1010188468142FADB1AF80810002959
:10D32000F6D105985B46A0EB080721463846179AC8
:10D3300000F094FA284400EB080507E04DE029E1ED
:10D340000DE01AF8010B5A4617999047B8F10108F9
:10D35000F7D25B4621463846179A13E142E00A228B
:10D360000092C4F302524FF0000A022A08D059F882
:10D3700004CB032A4FEAEC710AD00DE029E02AE041
:10D3800009F1070121F00702F2E802C1914609E024
:10D390000FFA8CFC4FEAEC71042A03D14FFA8CFC93
:10D3A0004FEAEC71002907DA0A460021DCF1000C93
:10D3B00061EB02012D2202E0220504D52B228DF81B
:10D3C0000420012203E0E20701D02022F7E7904683
:10D3D00059E00A2102E010220DE010214FF0000A6E
:10D3E00000910BE010224FF0000A44F004040827DB
:10D3F000009203E008224FF0000A0092C4F30252A8
:10D40000022A05D059F804CB0021032A08D009E0EC
:10D4100009F1070121F00702F2E802C1914605E097
:10D420001FFA8CFC042A01D10CF0FF0C4FF000080D
:10D43000220728D5702806D0009B83F0100353EAFA
:10D440000A0305D00EE040228DF80420012208E0F6
:10D450005CEA010206D030228DF804208DF8050028
:10D4600002229046009B83F0080353EA0A030AD184
:10D470005CEA010201D1620705D530228DF8042053
:10D480004FF001087F1E582804D034A003900EA846
:10D4900002900DE036A0F9E753466046009AFFF788
:10D4A00041F884460398825C0298401E0290027004
:10D4B0005CEA0100F0D1029806A9081A00F1200ADE
:10D4C000600702D524F4803400E00127574502DDCF
:10D4D000A7EB0A0000E0002000EB0A01009005988D
:10D4E0004144401A0590E00306D45B462146179A52
:10D4F000059800F0B3F90544002706E001A85A4654
:10D50000C05D179990476D1C7F1C4745F6DBE00313
:10D510000CD55B462146179A059800F09FF9054403
:10D5200004E030205A46179990476D1C0099481E18
:10D5300000900029F5DC08E0029802995A4600782C
:10D54000491C0291179990476D1CBAF10001AAF18C
:10D55000010AF1DC65E100000928010030313233B5
:10D56000343536373839616263646566000000001F
:10D570003031323334353637383941424344454609
:10D580000000000000F058F90544761C30780028AF
:10D590007FF4ECAD19B02846BDE8F08F620700D4E7
:10D5A000062709F1070222F0070CFCE80223E146F6
:10D5B00003F000485FEA080C02D00FF2702C0DE077
:10D5C0005FEA045C02D50FF2682C07E05FEAC47CD6
:10D5D00002D00FF2602C01E0AFF2700C4FF0FF3878
:10D5E00023F00043CDF850C065280CD006DC452858
:10D5F00009D046281DD047283DD13DE0662818D0E7
:10D6000067287ED138E00021112F01DB112000E0D6
:10D61000781CCDE9000106A90EA8FFF7EDFCDDE9B5
:10D620000F010E9A03910021009207F1010A049163
:10D630004DE04FF000400097CDE9011006A90EA87B
:10D64000FFF7DAFCDDE90F0203920E9B119900222D
:10D65000DDF80CA00093049211B9791C00EB010ACB
:10D66000B7EB0A0004D4C0F1FF3007F1010A0490BF
:10D67000AAEB0700019044E0012F00DA0127002106
:10D68000112F01DD112000E03846CDE9000106A987
:10D690000EA8FFF7B1FCDDE90F010E9A03910021FE
:10D6A00004910092BA4621070CD40399514500DA3F
:10D6B0008A46BAF1010F05DD009AAAF10101515C19
:10D6C000302908D0B84202DA10F1040F06DA01213D
:10D6D000CDE9011015E0AAF10101E9E7002805DC18
:10D6E000049901440491AAEB000102E0411C514558
:10D6F00000DD8A460499401A401C01904FF000401A
:10D700000290200704D40198504501DBCDF8048035
:10D7100000208DF84F0002980DF14F07B0F1004F37
:10D7200025D02B200E9002984FF0020800280CDA2A
:10D73000404202902D200E9007E00A210298FEF749
:10D74000DBFE3031029007F8011DB8F10001A8F1AD
:10D750000108F2DC02980028EFD1791E0E980870BB
:10D76000307800F0200040F0450007F8020D12A8C4
:10D77000C01B00F107081498007800B1012000EBED
:10D780000A01019801EBE07105984144401A401EDE
:10D790000590E00306D45B462146179A059800F0F1
:10D7A0005DF805441498007818B15A4617999047C7
:10D7B0006D1CE00324D55B462146179A059800F0BE
:10D7C0004DF805441CE00498002807DBDDE903015F
:10D7D000884203DD0098405C179901E017993020DA
:10D7E0005A469047049805F10105401C04900198A1
:10D7F000401E019004D12E205A46179990476D1C67
:10D80000BAF10001AAF1010ADDDC05E017F8010B0D
:10D810005A46179990476D1CB8F10001A8F101080C
:10D82000F4DC5B462146179A0598ABE62D00000014
:10D830002B000000200000002DE9F04104460025E7
:10D840001E461746880404D405E039462020B04718
:10D850006D1C641EF9D52846BDE8F0812DE9F04124
:10D86000044600251E469046C80301D5302700E037
:10D870002027880404D505E041463846B0476D1C92
:10D88000641EF9D52846BDE8F0812DE9FC5F00252E
:10D89000168807461580406B14468946A8464FF007
:10D8A0000C0A11234FF0020B98B101784846032E61
:10D8B00048D380F800B02288521C92B22280835450
:10D8C0002288521C92B2228009F802102088401C43
:10D8D00020803A6BDAB12088494600F11205B54242
:10D8E00030D80B5420881023401C80B220800B5469
:10D8F0002088401C20800F202388155C401ECD54BA
:10D90000238840B25B1C23800028F5DA454697F84F
:10D910002E0030B133462246494601F0B7FB0500E0
:10D9200011D197F82D0030B132462146484600F01B
:10D930007DFD050007D1B87820B32088C846001DBA
:10D94000B04202D95046BDE8FC9F684679DF002806
:10D95000F9D12188032008F8010020881921401CF2
:10D9600080B2208008F800102088401C80B22080FF
:10D9700000EB0801BDF8000002F022FF01462088FC
:10D9800008442080F878B8B1228897F90310D31C96
:10D990004846B342D6D800F802B022880123521C70
:10D9A00092B2228083542288521C92B2228009F8BB
:10D9B00002102088401C20807868B8B1218890F936
:10D9C0000020CB1C4846B342BCD800F801B02188E7
:10D9D0000A23491C89B2218043542188491C89B2F9
:10D9E000218009F801202088401C2080388950B10E
:10D9F000CDE900464B460622022107F1080002F05D
:10DA000048FF05009FD1388A50B1CDE900464B460A
:10DA10000722032107F1100002F03BFF050092D11D
:10DA2000388B50B1CDE900464B461522142107F141
:10DA3000180002F02EFF050085D1386A30B1334658
:10DA40002246494601F022F90500DBD1786A30B15F
:10DA500033462246494601F07BFD0500D2D197F8B6
:10DA60002C0038B1334622464946384602F006FBC0
:10DA70000500C7D1387838B1334622464946384682
:10DA800001F098FD0500BDD128465CE710B50122E4
:10DA90000221002000F0B6FE08B1072810D10722AD
:10DAA0000221012000F0AEFE08B1072808D10021B4
:10DAB0000A22084600F0A6FE08B1072800D100207F
:10DAC00010BD0000064800684FF40021044A81435D
:10DAD000121D1160111D00F4002008607047000045
:10DAE0000405005070B50024064D06E06868012169
:10DAF00010F8340001F0C8FD641C28788442F5D386
:10DB0000002070BD20210020F8B515460C460646C1
:10DB1000052A01D20720F8BD01F098FE18B901F0DE
:10DB20006BFE0028F7D1104900204E600C70C1E94F
:10DB300002500E4D08610DE006EBC40069680091CB
:10DB400081788DF801100078094A694601F0EEFDF0
:10DB50000028E0D1641EE4B2EED2BDE8F840054AE8
:10DB60000021024800F04EB820210020C00C020025
:10DB7000A9EF010075ED0100BFF34F8F0548016863
:10DB8000054A01F4E06111430160BFF34F8F00BF0C
:10DB9000FDE700000CED00E00400FA050EB50021E1
:10DBA0000091CDE901106A4644F20100FFF7E4FF5D
:10DBB0000EBD10B58268C368934203D001F0D0F95E
:10DBC000002010BD052010BD29B112B1531E134213
:10DBD00003D0092070470E20704701608380002128
:10DBE0008160C1600846704710B58268C3689A1AA0
:10DBF00083889A4203D801F0BDF9002010BD0420AB
:10DC000010BD0000074B9B6823B12AB120B100680A
:10DC1000037C1BB1082070470720704741744261A4
:10DC200000207047342100202DE9F04780469946B6
:10DC300014460F4690074FF0000634D11C4D8CB3AC
:10DC400002F010F90320C5F81490287004F11800B0
:10DC5000002107EB4703AC6004EBC102491C1670BE
:10DC600056709770506000EBC3000329F4DBEE6040
:10DC70006E70AE701420FEF783FF06211420FEF7AD
:10DC8000A0FF1420FEF787FF0A49C1F80080062193
:10DC90001120FEF796FF0748001F0068286100204A
:10DCA000BDE8F08701E00720FAE7AE60FBE700007F
:10DCB00034210020081501402DE9F843DFF8709069
:10DCC0000D461746D9F80810044651B34CB3052D3C
:10DCD00002D20720BDE8F883606910B3607C012898
:10DCE00021D0002602F0A2FDD9F80810804601EBF1
:10DCF000C800694602F0B9FDB8B1012100F8041B63
:10DD00000C4910C0096880E8E200D9F8081001EB5E
:10DD1000C8009DF8001041701420FEF747FF002056
:10DD2000D8E70820D6E72E46DCE70420D2E700003B
:10DD30003421002004150140F8B5124E0446B168A4
:10DD4000E1B1DCB16069C8B10027277402F06EFD53
:10DD50000546B068694600EBC50002F086FD78B163
:10DD6000022101704460B0689DF8001000EBC5000E
:10DD700041701420FEF71AFF3846F8BD0820F8BDA0
:10DD80000420F8BD3421002010B5044609488168FC
:10DD9000C2688088511A814206D10121064801F0EB
:10DDA000A9FD08B1052010BD2146BDE8104001487D
:10DDB000FFF7FFBEBC270020F520002070B5044609
:10DDC000234888B01E460D00426035D0A8882968D7
:10DDD00082B22048FFF7F8FE00282ED1A889A96852
:10DDE00082B21C481030FFF7EFFE002825D1202218
:10DDF00019496846FEF75CFBA0680690207900B1DF
:10DE000001208DF814008DF81C60607900B10E209F
:10DE10008DF81500E0780290A078039020780190AA
:10DE2000607800900D49684601F01AFD002804D181
:10DE30009DF81D0018B104E0072008B070BD01F086
:10DE40009FFD03480121401C01F054FDF5E700004F
:10DE5000F4200020BC270020800C020039050200BD
:10DE600010B501460948FFF7BFFE04000CD101F0D0
:10DE7000B5FE48B906490548FFF79BFE20B90121C8
:10DE8000034801F023FE0446204610BDCC270020A5
:10DE9000F42000202DE9F04104460078184F0126B7
:10DEA00006FA00F03860206801F0D2FE00216068B8
:10DEB00001F0BEFE1348144D007FA069C5F824058B
:10DEC000607D217D0843C5F86C05D4E90001C5F8E3
:10DED0000C05C5F81415207D01280FD10021A0687C
:10DEE00001F0A6FE207B86403E60E06801F0B0FEB7
:10DEF000D4E90201C5F80815C5F81005BDE8F081A0
:10DF0000080500503428002000200040F0B50C46E1
:10DF100093B01F210726ADF80010ADF804100027BC
:10DF200050B1C17849070DD56A4602A9FFF7ADFC8B
:10DF3000002808D102AD02E00025ADF800706CB1F8
:10DF4000E07810B1304613B0F0BD01AA0AA920460E
:10DF5000FFF79BFC0028F6D10AAA02E00022ADF8E8
:10DF60000470BDF80400C3B2BDF80000C1B2284679
:10DF700072DFE8E770B50D4604991646040040D0FC
:10DF8000F6B3414800224271C0E9033124223146F0
:10DF90003E48FEF78DFA00F0BBF83C493431A1F160
:10DFA000100001602031816038215C38FEF799FA59
:10DFB0003648217838380170A1788170E178C170D5
:10DFC00061784170D4E90412C0E90412D4E9021264
:10DFD000C0E90212D4E90612C0E90612616AD1B1A1
:10DFE00000F1AC0100F1B80241628A60636A1B88EB
:10DFF0000B80616A436A898899800021436A07E03F
:10E00000FFE70E2070BD666AB668765C5654491C00
:10E010009E888E42F7D8A16AD9B11C4AAC32A2F1CF
:10E020000C018A608162A36A9B888B80A16A836AE3
:10E03000098819800021836A04E0A66AB668765CC4
:10E040005654491C9E888E42F7D894F82C1080F8BC
:10E050002C10216A49B10C4914310162226A52889C
:10E060004A80216A026A09881180616821B10649E3
:10E07000891D4160616841602946BDE870400348E0
:10E080003838FFF743BF0000C0200020B42600202E
:10E0900010B502881D4C102A18D00021112A1BD05F
:10E0A0001B2A18D1007A002815D16079012820D0C8
:10E0B000022824D0032824D004280CD12171E2683E
:10E0C0000846002A07D0BDE810401047817D01298D
:10E0D00001D18088208110BD6170808821898842AB
:10E0E000F9D1012006E021690029F4D0BDE81040F3
:10E0F0000847022000F03CF80028F4D110BD0320AE
:10E10000F8E7032020710420F4E70000C02000207D
:10E11000024800218161818381777047C0200020FF
:10E12000114810B5007801281BD1104C6078C0B997
:10E13000607910B174DF002814D10B4901206070A0
:10E1400038390620C870084800213838FFF7DEFE4D
:10E15000002807D1607900F00BF810B1216901B1F6
:10E160008847002010BD0000B4260020C0200020F9
:10E170002DE9F04F744C87B00026607106A8069612
:10E1800001F05EFE0127082801D030B903E006A89F
:10E1900000F000FF18B9069808B12770C0E0FFF73B
:10E1A000B7FF6A4DDFF8A0814FF0020A687808F1E6
:10E1B00018084FF0030B10B16079012806D0A87839
:10E1C00058B16079012801D002281FD1E16819B146
:10E1D000E7700820884700E0E6706079012806D1E2
:10E1E000687840B108F1010001F008FE18B16079CB
:10E1F000022802D00AE084F805A0A87820B108F12E
:10E20000010001F0FBFD08B984F805B0287B4FF050
:10E21000040920B96079032801D184F80590287E8B
:10E2200020B96079042801D166712671E16841B195
:10E230006079032801D0042803D1287808B16078D8
:10E24000C0B1A67018216846FEF74BF98DF8006042
:10E2500001968DF808600396607901280ED0022897
:10E2600016D03A4E2436A6F15C0703281DD00428A8
:10E270004CD13AE0A77007208847E3E7ADF8126079
:10E28000CDF804808DF80070ADF8106027713FE084
:10E29000CDF804808DF800702889ADF81200A888A8
:10E2A000ADF8100084F804A032E0A88AADF812009E
:10E2B000288AADF810002548243002F051FB18B12F
:10E2C000287808B1607810B184F804B01EE01F48C7
:10E2D0008DF808A0039687F8039000213838FFF7DF
:10E2E00015FE00281DD105202BE0A88BADF81000ED
:10E2F000288CADF812001548243002F031FB18B11B
:10E30000287808B1607878B184F80490607918B101
:10E31000684673DF002804D1E16809B12079884795
:10E32000002007B0BDE8F08F08488DF808A00396DC
:10E3300087F8039000213838FFF7E8FD0028F0D176
:10E3400006202071E2E70000C0200020B426002053
:10E3500070B5054601461C220F48FEF7A9F80F4C80
:10E3600000262670286830B1016861604068A060AE
:10E37000201D7ADF02E00948001D7BDF00280AD15A
:10E380004FF6FF7060806670BDE87040044A00215F
:10E390000448FFF737BC70BDA0270020E020002014
:10E3A000CD0702006C0C020070B51E4C06880025DB
:10E3B0001B49E289102E15D01B4B112E1CD0122E9A
:10E3C00029D0502E17D130F8061F914213D1418920
:10E3D000022910D1007B10F0010F11D0BDE8704070
:10E3E00000F09ABC83884B808369CB60C069086168
:10E3F0004D70002AF2D070BD4FF6FF7048804D700E
:10E400001868FFF799FC0028F5D0A1690029F2D01F
:10E41000BDE8704008478268CA60C0680861DDE7EF
:10E42000E0200020A02700206C0C02007CB50546EF
:10E4300008880C460930904201D90C207CBD684602
:10E4400071DF0028FAD121880820685420881B2118
:10E45000401C80B2208029542088401C80B220803B
:10E460002844DDF801100160BDF805108180208886
:10E47000801D80B220809DF8001001B10121295437
:10E480002088401C208000207CBD000010B5044680
:10E49000FFF78AFF2146074800F040F8204601F0C8
:10E4A0006DFC2046FFF7F4FD2046BDE8104000F06B
:10E4B000DFB800009425002030B5174B0D4604004E
:10E4C0000FCB85B08DE80F0023D015B34FF6FF704A
:10E4D000A0822868A0610020A0752146684663DFFD
:10E4E000002814D120788DF812000120ADF810001A
:10E4F000A21C04A9A0DF002809D12946204601F06A
:10E50000E7FC002803D12946204601F085FF05B02D
:10E5100030BD0E20FBE70000700C020000281ED06A
:10E5200000291CD00A88102A14D0112A14D0502A8D
:10E5300015D131F8062F038A9A4202D14B89022B5A
:10E540000ED083889A420AD18369002B07D04A896A
:10E550000C311847898801E04FF6FF7181827047BE
:10E56000097B11F0010100D001218175704707B5C9
:10E5700084B068B1828AA2F57F43FF3B0AD0827DD6
:10E5800042B1BDF81820142A06D9072007B000BDF3
:10E590000E20FBE70820F9E7002200920192029288
:10E5A00003928289039106A90291ADF8002001210E
:10E5B0008DF80210808A6946A6DFE7E700B51548A6
:10E5C00087B00023006805904822134905A801F090
:10E5D000E3FD08B1FFF7E2FA6A460121002001F0ED
:10E5E000C5FD08B1FFF7DAFA0C4801F0FBFC08B1F1
:10E5F000FFF7D4FA684601F0AFFD08B1FFF7CEFA95
:10E60000074801F09FFD002801D0FFF7C7FA07B0C7
:10E6100000BD00007009020070210020E81F0020EA
:10E620008DE401007CB5114E0C004FF00005306008
:10E6300015D06946002000F0B1F8002815D101A9D5
:10E64000012000F0ABF800280FD19DF8041009B1AB
:10E65000022003E09DF8001001B10B2020707068CB
:10E6600010B9FFF713FA054628467CBDB8200020F4
:10E6700010B51A4C0188606810290ED011292BD1D1
:10E68000401E606028D1FFF701FA002824D02168DD
:10E69000002921D0BDE810400847D0B9002101224F
:10E6A000084600F0AFF808B107280FD10722022171
:10E6B000012000F0A7F808B1072807D104220221A1
:10E6C000002000F09FF820B1072802D0216801B196
:10E6D00088476068401C606010BD0000B8200020C2
:10E6E00010B5032000F020FA08B1062800D1002060
:10E6F00010BD00002DE9F04707460024244802E041
:10E70000641C042C41D250F82420BA42F8D1042CC5
:10E710003BD21F48DFF87C901F4E0C38A9F114083B
:10E7200041B301290FD002292FD104EB440030441A
:10E730004578002D29D0D8F81010002925D028467A
:10E74000BDE8F047084704EB4401755C0E4471785E
:10E7500061B1D8F804100F4A01EB81014900133A66
:10E760008068FFF7A9FA08B988F80170B17809F84C
:10E770000410DEE78068FFF7DFFA04EB4401314460
:10E7800019F804008D78A842D3D0BDE8F0870000C6
:10E790003C0C0200B42000205026002004280CD29B
:10E7A000074A1268074B13F8203001209840904325
:10E7B00000D001200870002070470020FAE7000018
:10E7C000100500503C0C020010B5042807D00728A3
:10E7D00010D00A2812D1BDE8104001F09FBC0848B3
:10E7E0001321408876DF07E0002807D0BDE81040FD
:10E7F000FFF7D4B9FFF794FC0828F5D110BD00004D
:10E800008020002070B50023042810D20D4D00EBAD
:10E810004004012A02D101290CD00022094E00EB4C
:10E820004000304461B1012906D0022906D00723F7
:10E83000184670BD0D30C2B22A55F9E74270F7E7AD
:10E840008270F5E750260020044A01460020127A23
:10E85000D20702D0084600F055B87047A02000202B
:10E8600070B50E462149054600200A61C1E90165DF
:10E87000A9071BD50024012211462046FFF7C2FF3D
:10E88000641C042C02D20028F5D00FE070B9720885
:10E8900004211748FFF738F940B9FFF723F928B9E1
:10E8A0001348144A00211438FFF7ACF9E9070AD0DD
:10E8B000114A4FF4F01111600F4B00221B1D1A601A
:10E8C0000D4A1032116000280FD109480B4A00216F
:10E8D0001C38FFF797F9002807D1BDE870400448BD
:10E8E0000121074A1838FFF78DB970BDA02000201C
:10E8F0004C0C020065EB010008050050E9F1010035
:10E90000C5DA01002DE9F84F854EDFF810A24FF46B
:10E91000E01CF16807462CEA010C009100207168A8
:10E920000AF10404251D7F4B4FF400324FF4802B75
:10E9300001EB810E8146182F16D2DFE807F00C1785
:10E94000173A4E607083868F868FEAA0A0A0A0A0A1
:10E95000CAD1D8E1EAEA009A4FF4F011914321605C
:10E96000C5F8009086F80090BDE8F88FC4F800C0A4
:10E970004846C5F80090DAF800C08CF4F01C5FEA55
:10E980008C3C09D522602860022F02D14FF4E1604F
:10E9900008E04FF47A6005E02A602060022F3CD046
:10E9A0004FF4C8706422B0FBF2F04143377000228C
:10E9B0005EE0C4F800C04846C5F80090DAF800C030
:10E9C0008CF4F01C5FEA8C3C04D5226028604FF484
:10E9D0004870E7E72A6020601FE0C4F800C048469E
:10E9E000C5F80090DAF800C08CF4F01C5FEA8C3CAB
:10E9F00002D522602860CCE72A602060D0E7C4F806
:10EA000000C04846C5F80090DAF800C08CF4F01C4D
:10EA10005FEA8C3CDED522602860C820C2E7C4F8DB
:10EA200000C04846C5F80090DAF800C08CF4F01C2D
:10EA30005FEA8C3C02D52260286001E02A602060F9
:10EA4000377014E0C4F800C04DE0DAF800002BEA9B
:10EA50000002226000F48020286008E0DAF800005C
:10EA60002BEA0001216000F480202860714600221A
:10EA70001868BDE8F84FFFF71FB921602EE09846EF
:10EA80005868FFF759F9D7F1110100D040B1F1688A
:10EA900001F4F0112160C5F80090C6F80C9063E70E
:10EAA0004FF40022F26001290CD9C82011FB00F1BB
:10EAB0006420B1FBF0F1706800224143D8F80400F3
:10EAC000FFF7FAF8F16801F4F0112960C4F800903A
:10EAD0004AE74FF4F0112160C5F80090377043E722
:10EAE0004FF4E01121604946C5F8009006E04FF46C
:10EAF000D01121604946C5F800905A462A60BCE70B
:10EB00004FF4C01121604946C5F800904FF4C0226F
:10EB1000F4E74FF4F01129604946AEE704050050D0
:10EB2000A0200020300C020070B500210C4D012403
:10EB300055F82120920002F1A042D2F8006704FAB1
:10EB400001F3034000D0032326F4403646EA034392
:10EB5000C2F80037491C0429EAD3002070BD000028
:10EB60003C0C020000780221FFF7C4BD05494FF0BC
:10EB7000FF32082841F8202002D3084480F84820BA
:10EB800070470000DC270020F0B54FF0FF3512B1D0
:10EB90000023082601E008230C260C4C05E000BFEA
:10EBA00054F823707F1C04D05B1CB342F8D3284672
:10EBB000F0BD26185DB286F8305044F82310002AC4
:10EBC000F5D1E11881F84800F1E70000DC270020CA
:10EBD0000249084490F9300070470000DC2700200B
:10EBE0002DE9F05F2648C168F1B3DFF898B00E68F0
:10EBF0008146DBF800400769C078E11B21F07F45C2
:10EC0000ED1CB0B9DFF880804FF48030C8F84403C1
:10EC1000C8F804031120FDF7B3FF1120FDF7BBFF77
:10EC20004FF0010AC8F800A02F20FDF7F3FB89F888
:10EC300003A0B54200D23546124BE8193C3320F010
:10EC40007F401860DBF800105A46091B21F07F4115
:10EC5000001B20F07F40C91C81420FD9106818604A
:10EC60002F20FDF7D7FB00E004E0BDE8F05F1120A6
:10EC7000FDF79CBFBDE8F05F01F0F4B8BDE8F09F80
:10EC80003421002004150140001001402DE9F0411D
:10EC900017880646B81D14460D46984202D90C2026
:10ECA000BDE8F0813188072206290AD34FF4486C69
:10ECB0004FF6FF73614501D9994202D17088062849
:10ECC00001D21046ECE7604501D99842F9D199424A
:10ECD00003D0984201D08142F3D80520E85520881E
:10ECE0001221401C80B2208029542088401C80B210
:10ECF00020804119308801F063FD2188084480B2EA
:10ED000020804119708801F05BFD21880844208033
:10ED10000020C5E7FEF742BFF8B5134800F0A8F998
:10ED2000114D0026114C0C3D30B16169B9B1012083
:10ED30008DF80000684611E0287820B1616971B152
:10ED40008DF80060F6E7687858B1A168084800229D
:10ED50000068FEF7B1FF10B1A16901B188472E70BC
:10ED6000F8BD6168F2E70000EC200020A027002039
:10ED70006C0C02002DE9F04100260125144C22E024
:10ED80006068226900EBC607387805FA00F1114285
:10ED900017D08A43226100F025FD02463878E368E7
:10EDA00005FA00F1194002FA00F3994209D1797885
:10EDB000012901D0012100E0002151407A6802B10F
:10EDC0009047761CF6B220788642D9D3BDE8F08110
:10EDD0002021002070B5044600251F2000F050FFC0
:10EDE000032000F04DFF022000F04AFF042000F055
:10EDF00047FF206800BA20F0FF01E078464C01434D
:10EE00000120002300FA05F20A42C5F11F0201D0D9
:10EE1000A05400E0A3546D1CEDB2202DF2D33F4E60
:10EE20000225601910F8020C0128705D67D000F00F
:10EE300027FF6D1CEDB2082DF3D3042000F028FF4E
:10EE40001F2000F01DFF032000F01AFF022000F039
:10EE500017FF042000F014FF0025601980790128B5
:10EE6000705D4FD000F00CFF6D1CEDB2082DF4D397
:10EE7000032000F00DFF1F2000F002FF032000F030
:10EE8000FFFE022000F0FCFE042000F0F9FE002549
:10EE90006019807B0128705D37D000F0F1FE6D1C99
:10EEA000EDB2082DF4D3022000F0F2FE1F2000F096
:10EEB000E7FE032000F0E4FE022000F0E1FE042063
:10EEC00000F0DEFE00256019807D0128705D1FD0F6
:10EED00000F0D6FE6D1CEDB2082DF4D31F2000F01B
:10EEE000D7FE1F2000F0CCFE032000F0C9FE022058
:10EEF00000F0C6FEBDE87040042000F0C1BE00F086
:10EF0000C7FE96E700F0C4FEAEE700F0C1FEC6E71C
:10EF100000F0BEFEDEE70000F0250020902000207B
:10EF20000E4910B54A788C780023A24212D0521CA8
:10EF3000D2B24A70022A00D14B70084A4B7818327C
:10EF400052F8232002600869104420F07F400861D5
:10EF5000012010BD0360002010BD000034210020FE
:10EF6000826883881A4003689A5C0A708168491C29
:10EF700081607047C26883881A4003689954C168E9
:10EF8000491CC160704710B50446C0B2FEF768FF67
:10EF9000204610BD20B10349496D01600020704733
:10EFA000032070474C2900202DE9F041124E0746FE
:10EFB0000125BD403068FEF7BFFE00280DD10F4C83
:10EFC0002069284207D1384600F00CFC0028E06890
:10EFD00005D0284304E0A8432061BDE8F081A843A0
:10EFE000E060206928432061A1683068BDE8F041F5
:10EFF0000022FEF761BE0000C00C020020210020AC
:10F00000F8B51A4C207800282ED0206928B10026A7
:10F01000E06820B1002526B110E00126F8E70125BF
:10F02000F9E7684652DF052803D020B1FEF7B6FDA8
:10F0300004E0012602E021690098884785B96088CC
:10F04000ADF800006946A06861DF052803D020B153
:10F05000FEF7A4FD04E0012502E0D4E9020188479F
:10F06000002EDED0002DD6D0F8BD000058210020A3
:10F07000054940880A88904204D34988884201D8CB
:10F080000120704700207047E420002030B514882C
:10F09000E51C9D4201D90C2030BD02250D55138879
:10F0A0001C245B1C9BB21380CC5413885B1C9BB24A
:10F0B0001380012807D0022807D0032807D004288E
:10F0C00007D0072030BD002004E0012002E0CD542D
:10F0D00001E00320C8541088401C1080002030BD7F
:10F0E00010B53D4A01213D48FEF78CFD08B1FEF701
:10F0F00055FD3A483A4A0121001DFEF783FD08B14B
:10F10000FEF74CFD354800224FF4A4710068FEF76D
:10F11000D3FD08B1FEF742FD3249002088801C2053
:10F1200000F08FFD1E2000F08CFD1D2000F089FDF9
:10F130001F2000F086FD032000F083FD022000F078
:10F1400080FD042000F07DFD0D2000F07AFD0E20F2
:10F1500000F077FD0F2000F074FD102000F071FD2D
:10F16000112000F06EFD122000F06BFD132000F066
:10F1700068FD142000F065FD1C2000F089FD1E20B4
:10F1800000F086FD1D2000F083FD1F2000F080FDB3
:10F19000032000F07DFD022000F07AFD042000F045
:10F1A00077FD0D2000F074FD0E2000F071FD0F20A2
:10F1B00000F06EFD102000F06BFD112000F068FDE6
:10F1C000122000F065FD132000F062FDBDE8104044
:10F1D000142000F05DBD00009DCE010080090200FA
:10F1E00035CF0100982000200348017AC90702D0DA
:10F1F0000078FFF787BB7047A02000202DE9F0477B
:10F20000DFF8ACA0DAF80C009AF8004080469AF8D3
:10F210000460DAF80890DAF810703AE009EBC405F7
:10F220002A7833E002EB42016B68521C03EBC10108
:10F23000AB78D2B2934200D100220B78022B02D0DD
:10F24000032B23D11FE0D1F804C00346014603E09D
:10F25000614503D00B46C969C1B1F9E7B1B18B4231
:10F2600005D1C06918B9134F0126BE600027D1F837
:10F2700000C0C969D96149B10B6863440B6005E0FE
:10F280000174C06900E000210028F9D16978914239
:10F29000C8D1641EE4B2C1D2CAE903078AF8046087
:10F2A000404502D00120BDE8F0870020FBE70000C8
:10F2B00034210020001001402DE9F04705462F4879
:10F2C000002680460778D0F80C904BE0D8F808006C
:10F2D00000EBC70440E002D02846ED691EE020782C
:10F2E000616800EB4002401CC0B201EBC20120701B
:10F2F000A278904200D126700A784868012A2DD160
:10F30000027C5ABB8A684260CA6882600A69C2602D
:10F310004969816198F8041001B146604268D8F8E3
:10F320001030DFF85CC0D11A21F07F41614502D274
:10F330008268114406E0991A826821F07F418A426E
:10F3400002D9511A016000E0066046600121866022
:10F350000174C66100F080FF002DBCD12078617877
:10F360008842BCD17F1EFFB2B0D2D8F80C104945FC
:10F3700002D00120BDE8F0870020FBE73421002007
:10F38000FFFF7F000023A6B05B4A05211846FEF769
:10F390004BFC08B1FEF702FC584A04AB07CA83E8ED
:10F3A00007005748009057494FF48070CDE901019C
:10F3B00003900623544A694604A8FEF7FFFC08B1EF
:10F3C000FEF7ECFB514A40F6CD410320FFF748FA27
:10F3D00008B1FEF7E3FB69460020FFF723F908B107
:10F3E000FEF7DCFBFFF7EAF89DF8080048A120F0E3
:10F3F0000F00401C20F0F00010308DF808000B22A8
:10F4000002A87CDF08B1FEF7C9FB0024009410209D
:10F41000ADF800003C200194ADF80200ADF80440C6
:10F420004FF4C870ADF8060068467ADF08B1FEF701
:10F43000B5FB3A48009069463948FFF73DF808B1F6
:10F44000FEF7ACFB382101A8FDF74BF802208DF840
:10F4500004008DF8064005208DF8070038210FA81C
:10F46000FDF73FF82F4801251490ADF84C502421AA
:10F470001DA8FDF736F840202190B42022908DF889
:10F480008050294B1DAA0FA9009401A8FEF772FD18
:10F4900008B1FEF783FB1C216846FDF722F84FF404
:10F4A0002030CDE900404FF47020029003208DF809
:10F4B0000C001E4805901E480690ADF80E408DF8D1
:10F4C00010406846FEF744FF08B1FEF767FB0320D3
:10F4D000FEF74EFE08B1FEF761FB16A0FDF76CFDCE
:10F4E000FFF7FEFD16A0FDF767FD48DF0028FCD002
:10F4F000FEF754FBF9E70000CC230020740902005A
:10F50000CC210020CC220020DD040200C9E701004C
:10F51000427562626C655F57616C6C00E5FC0100CE
:10F52000942500208420002059FD0100E1FD010008
:10F5300015ED01006C656420696E69740D0A0000A8
:10F540006170705F696E69745F310D0A00000000C0
:10F5500070B5144682880E4605462088111D014468
:10F56000921C994201D8FE2A01D90C2070BD521C70
:10F5700032542088FF21401C80B2208031542088E2
:10F58000401C80B220808119288801F019F9218857
:10F59000084480B22080AA8842B1A96841B13044B1
:10F5A000FCF786FF2088A98808442080002070BDD1
:10F5B000072070BDF8B50E460178144605460129AE
:10F5C00001D1687830B12088821C9A422DD8012957
:10F5D00002D006E00720F8BD69780144891C9942F1
:10F5E00023D8181A801E87B2ADF800702188B01C8D
:10F5F000084469467DDF0028EDD12878022805D12E
:10F60000BDF80010B94201D809210AE008210128FB
:10F6100005D16878B84202D8ADF8000001E0ADF835
:10F620000070BDF80000FE2801D90C20F8BD22882A
:10F63000401CB0542088401C80B220803154208867
:10F64000401C2080BDF80010084420800020F8BD38
:10F650004907090E002806DA00F00F0202F1E02245
:10F6600082F8141D03E000F1E02282F8001400F09B
:10F670001F02012191404009800000F1E020C0F804
:10F680008012C0F8001170472DE9F0478846814686
:10F6900000F0BEFB0124224E0028484618D0FFF798
:10F6A00097FA304490F848008009032802D00128D6
:10F6B00006D007E01B48006804FA09F4204201D193
:10F6C000022100E003214846BDE8F04700F0CABA35
:10F6D00000F0AAFB002820D04846FFF779FA05463B
:10F6E000114F4FF4807007EB850100EB8500D1F8D6
:10F6F000102580B242F00102C1F8102500F0D0FAC6
:10F70000B8F1000F09D04846FFF762FA56F820001A
:10F71000002802D0AC40C7F80443BDE8F0870000E1
:10F72000DC27002010050050006000402DE9FC415E
:10F73000DFF8A480044608EB0400002790F93000AD
:10F740001346C0170E46401C01D0082740E0F2784F
:10F7500019462046FFF718FA0546401C37D0B07806
:10F7600048B1A00000F1A040D0F8001721F002013C
:10F77000C0F8001707E000217378204600910A4680
:10F78000019100F033FAF078C0B11448317800EB01
:10F790008500D0F81025124B1A40C0F810254FF400
:10F7A000F8524FF4403302EA042203EA01410A43CB
:10F7B000D0F810150A43C0F8102509E008EB050041
:10F7C000327810F8481F41EA8211017000E00427E6
:10F7D0003846BDE8FC810000DC27002000600040C6
:10F7E000FFE0FCFF03490968C14011F0010000D0AF
:10F7F000012070471005005070B5124D95F8540067
:10F8000008B1082070BD0020411E2A18401CC0B25B
:10F8100082F830102028F8D300242046FFF7A6F9FC
:10F82000641CE4B20C2CF8D306210846FFF710FF45
:10F8300005494FF00040C1F80403012085F8540049
:10F84000002070BDDC27002000600040034890F8D5
:10F850005400002800D0012070470000DC27002061
:10F860002DE9F0411E4C07460D46E07E10B1082000
:10F87000BDE8F08107B91B4F787F20773846FEF747
:10F8800009FB6560386920602800174E4FF00005BD
:10F8900016D0397F207F48B1C6F81051C6F82051E4
:10F8A000C6F82451C6F84451104804E0C6F81C516B
:10F8B000C6F844510E48C6F804030220FFF7C8FEFC
:10F8C000207F08B1082000E00420C6F80005E57597
:10F8D0002576A5750120E076A5760020C8E7000012
:10F8E00034280020A00C0200002000401003020079
:10F8F000800002002DE9F0411F4B1C7F3CB14FF40A
:10F900000052B2EB104F02D01020BDE8F081D3F8C6
:10F9100004C00022194D4FF404764FF40177BCF176
:10F92000000F05D014B1C5F8086301E0C5F80873ED
:10F9300093F817E0BEF1000F10D01A7E52B1BCF15F
:10F94000000F05D014B1C5F8046301E0C5F80473D5
:10F950001120DAE718610122197604E0D975002533
:10F96000D8605D761D761CB1BDE8F04100F066B848
:10F97000BDE8F04100F014B8342800200020004019
:10F9800010B5064C207F002806D1A07E002803D1A8
:10F9900000F01CFB0120A07610BD000034280020E0
:10F9A0002DE9F05F234DA87E104301D100F00EFB3E
:10F9B000214C686830B14FF40170C4F80403002092
:10F9C000BDE8F09F4FF000094FF4A27AC4F84491CB
:10F9D0004FF4927BA8465946204600F073F905463D
:10F9E0004FF48471204600F06DF9074651462046D9
:10F9F00000F068F9064647EA06012943EBD055EACC
:10FA0000060007D100F04CFA98F8171098F8190082
:10FA10008142E0D888F817900DB10320D0E70EB1ED
:10FA20000F20CDE798F81A10012009B12060C6E731
:10FA30006060C4E734280020002000402DE9F05F1A
:10FA4000204C00264FF48873C4F810614FF4A2755F
:10FA5000C4F84461C4F83405C4F838158AB1D4F840
:10FA6000000240F02000C4F80002DFF85C80D8F803
:10FA7000040048B14FF40470C4F804030020BDE84A
:10FA8000F09F01202060F0E79A46A9464FF4927B50
:10FA90005146204600F021F905464946204600F02F
:10FAA0001CF907465946204600F017F93D43054327
:10FAB000EED088F8176008B10320E0E7002FDDD012
:10FAC0000F20DCE700200040342800202DE9F0471B
:10FAD000204D0246287F38B14FF40050B0EB124F52
:10FAE00002D01020BDE8F08700F078F808B11120AE
:10FAF000F8E7A9750023AA60AB82287F28B3164CCB
:10FB000000264FF490709846C4F820314FF4AC733F
:10FB1000C4F85881C4F84425C4F848150121A160EF
:10FB2000696881B9824699465146204600F0D5F869
:10FB300007464946204600F0D0F80743F4D000B10C
:10FB40000F2685F816803046CCE7BDE8F04700F078
:10FB500005B8000034280020002000402DE9F05FA7
:10FB60001C4F00254FF48E7A2E46C7F81C514FF0DB
:10FB70000108C7F8088000F03DFC174CB815616813
:10FB800079B123E05F465146484600F09BF810B932
:10FB9000A08AB842F7D1A08AB84204D000F02AFC6B
:10FBA00001E08346B946A08AA17D8842EAD3A08AB3
:10FBB000584501D10F2508E04F465146384600F020
:10FBC00081F80028F9D0C7F80C80A6752846BDE852
:10FBD000F09F000000200040342800200248807D73
:10FBE000002800D0012070473428002030B541EAB9
:10FBF0004201DDE9034541EA8301800041EA042135
:10FC000000F1A04041EA0541C0F8001730BD30B511
:10FC100041EA4201DDE9034541EA8301800041EA0E
:10FC2000042100F1A04041EA0541C0F8001730BDB1
:10FC30001CB500220B46009211460192FFF7E7FF28
:10FC40001CBD0321800000F1A040C0F800177047E0
:10FC50001CB5002100910B46012201911146FFF7CE
:10FC6000D6FF1CBD800000F5E06000F1A0400268F6
:10FC700022F440320260026842EA014101607047AA
:10FC80000121814001480160704700000C050050CF
:10FC900001218140014801607047000008050050C3
:10FCA000034908B50844002101600068009008BDC0
:10FCB0000060004002494058012800D000207047F1
:10FCC000006000404058002800D001207047D0F864
:10FCD0000403084000D0012070474058002800D09D
:10FCE0000120704770B50C46052A20D120784128A4
:10FCF0001DD1607842281AD1E07821790002A0F560
:10FD000040503039084385B2294609A0FDF754F91F
:10FD1000A078302806D0312809D12846BDE87040A7
:10FD200000F0F6B92846BDE8704000F0EBB970BDB0
:10FD300072656365696365203078414220636F6D49
:10FD40006D616E642C207365742076616C7565201E
:10FD500069732025640D0A0010B550B103280CD139
:10FD60000220FEF771FD002807D0BDE81040FDF726
:10FD700015BFBDE8104000F0D1B910BD70B50188C5
:10FD8000164D0446102911D0112917D028461329E1
:10FD900040881DD052291AD100231A461946A9DFDE
:10FDA000002814D0BDE87040FDF7F8BE0720FEF72C
:10FDB0004BFD08B1FDF7F2FEA08807E00020FEF73A
:10FDC00043FD08B1FDF7EAFE4FF6FF70688070BD95
:10FDD00000231A4685217FDFE2E700008020002013
:10FDE0000078002807D104483B21408876DF0028AE
:10FDF00001D0FDF7D3BE7047802000200021425C77
:10FE00000AB101207047491C0629F8D30020704729
:10FE10000449084490F93000082801DB01207047AC
:10FE200000207047DC2700200449084490F9300086
:10FE3000082801D20120704700207047DC270020ED
:10FE400006490979490701D40820704720B10449BF
:10FE500049780160002070470E207047FC20002088
:10FE60005428002070B5012670044FF0E0210025D1
:10FE7000C1F88001084C4010C4F84803C4F80803D6
:10FE800066602F20FCF7C6FAA660044C2F2025617F
:10FE9000FCF7C0FAE57070BD00100140342100206D
:10FEA00009480A490022C37DC1F8082143B1D1F8AD
:10FEB0001815437EC268D154417E491C4176704773
:10FEC000D1F81805704700003428002000200040B9
:10FED00030B58FB00024054607949DF81C001C2106
:10FEE00020F00F00401C20F0F00010308DF81C00B6
:10FEF0009DF81D0020F00F00401C20F0F000103095
:10FF00008DF81D009DF81E0020F00600801C8DF865
:10FF10001E006846FCF7E5FA9DF80000019440F0E9
:10FF200010008DF8000007A8CDE904400394069462
:10FF300028788DF83A000320ADF838000D949DF82C
:10FF40003400142120F00F00401C20F0F00010308D
:10FF50008DF834009DF8350020F00F00401C20F093
:10FF6000F00010308DF835009DF8360020F00600C6
:10FF7000801C20F0180040F001008DF8360008A821
:10FF8000FCF7AFFA0EA808900DA809900120ADF873
:10FF900028001420ADF82A40ADF82C00688805F13F
:10FFA0000C0308AA6946A2DF0FB030BD1FB50122BD
:10FFB0008DF8080004488DF800200191D0E9001266
:10FFC000684690471FBD00003428002004480021E7
:10FFD000C0F82411C0F80811012101607047000029
:10FFE0000020004008B502490020009108BD000033
:10FFF0008020002010B50121202803DA1D4A81400D
:020000040002F8
:10000000114004E0402803DAA0F12002914041B100
:10001000002809DA00F00F0101F1E02191F8141D28
:1000200006E042F2010010BD00F1E02191F8001459
:100030004909082914D299B1012911D004290FD0F6
:1000400005290DD00C4A946800F01F030121994046
:10005000400944B152F820300B4342F8203007E009
:1000600042F2020010BD800000F1E020C0F8001153
:10007000002010BDFC06FFBCA42900202DE9F041A2
:100080000746806A14468846C8B3002531E000BFA1
:10009000B96A05EB450001EB8006B088801CFE289C
:1000A00002D90C20BDE8F0812288401C08F802002B
:1000B00020881622401C80B2208008F8002020886A
:1000C000401C80B2208000EB0801308800F078FBF3
:1000D0002188084480B22080B28842B1B16871B1F1
:1000E0004044FCF7E5F92088B188084420806D1C65
:1000F000EDB297F82C00A842CAD80020D2E7FFE75B
:100100000720CFE7014908807047000088200020C1
:1001100001494880704700008820002010B5002069
:10012000FEF792FB08B1FDF739FDFEF7D9FA08B1E9
:10013000FDF734FD3CDF002803D0BDE81040FDF79B
:100140002DBD10BD18B10349C860002070470E20B6
:1001500070470000582100201CB50349019100910F
:10016000694660DF1CBD00008020002070B50E468F
:100170000546144614211046FCF7B3F901202080EF
:100180000021216121732672657205B1A0720020E1
:1001900070BDFDF7F1BC000030B409B18C0702D08E
:1001A000072030BC7047074C0125A16062800649DA
:1001B000636010DF0028F4D1257030BC1620FFF7F3
:1001C00019BF000058210020930102002DE9F84FCB
:1001D000204C00256846D4E903B6FEF7A1FE804610
:1001E000FFF70CF80746A946B8F1000F25D0002309
:1001F000009ACC46E06819E007680146974202D9A8
:10020000BA1A026014E0C1F800C0D1F80C80D21B09
:10021000C8693B448A46B8F1000F07D0F71827F0A9
:100220007F47C1E90178CAF81C500D460028E3D188
:10023000E0602846FFF740F804E02846FFF73CF866
:1002400000B917B15846FEF7CBFC84F80490BDE81E
:10025000F88F0000342100200D4B10B5D96831B162
:1002600002680C68A24204D8A21A0A60C161D86070
:1002700010BD0B4603E00B46C969121B21B10C6887
:100280009442F8D3A41A0C600260C161D86110BD19
:10029000342100202DE9F0411D4DEC68002C35D0B3
:1002A0001C48002700682969B846401A20F07F469C
:1002B0002068B04215D82246361A0744E469107CFB
:1002C00068B182F810806B6933B1D2E905019847B3
:1002D00028B1FDF763FC02E0D2E905108847002C45
:1002E000E6D16978A878814206D1401CC0B2A870D6
:1002F000022801D185F802800548A978183040F815
:100300002170BDE8F0411420FCF750BCBDE8F0813D
:10031000342100200415014070B51F20FFF7B0FC08
:100320000320FFF7ADFC0220FFF7AAFC0420FFF733
:10033000A7FC2F4C0225605DFFF7A2FC6D1CEDB2FF
:10034000082DF8D30420FFF7A3FC1F20FFF798FC2B
:100350000320FFF795FC0220FFF792FC0420FFF733
:100360008FFC0025605DFFF78BFC6D1CEDB2082D46
:10037000F8D30320FFF78CFC1F20FFF781FC03203C
:10038000FFF77EFC0220FFF77BFC0420FFF778FCE0
:100390000025605DFFF774FC6D1CEDB2082DF8D3ED
:1003A0000220FFF775FC1F20FFF76AFC0320FFF710
:1003B00067FC0220FFF764FC0420FFF761FC0025C6
:1003C000605DFFF75DFC6D1CEDB2082DF8D31F20BA
:1003D000FFF75EFC1F20FFF753FC0320FFF750FCE4
:1003E0000220FFF74DFCBDE870400420FFF748BC39
:1003F00090200020064A0020C2F81C010548838A8C
:100400008168C95C838A5B1C8382C2F81C157047B3
:10041000002000403428002030B58FB005461C2154
:100420006846FCF75EF800249DF80000019440F057
:100430000C008DF800000394049405940694287829
:100440008DF836000220ADF834000C949DF8300091
:10045000142120F00F00401C20F0F00010308DF827
:1004600030009DF8310020F00F00401C20F0F0001B
:1004700010308DF831009DF8320020F00600801C0D
:1004800020F0180040F001008DF8320007A8FCF7BA
:1004900028F80DA807900CA808900120ADF82400BA
:1004A0001420ADF82640ADF8280068882B1D07AA57
:1004B0006946A2DF0FB030BD1FB500218DF80800DE
:1004C00005488DF80010826801928175D0E900120C
:1004D000684690471FBD00003428002070B50178A1
:1004E00041B1012901D0022921D14068BDE8704005
:1004F000FDF754BB0F4C0E4D20782844FDF744FC0B
:100500002078401CC2B2A818227010F8010C0A28EA
:1005100001D0142A0BD3064901F57770FEF727F8AE
:10052000082802D008B1FDF739FB0020207070BD0B
:10053000B8210020802000207CB50178264D0129BB
:1005400009D002292CD0002929D129462348FDF7BA
:1005500030FB80B334E04068017820481038FDF764
:1005600043FB1E4C103C20B101218DF8001001907E
:1005700007E0A068E168081A012805D100208DF87D
:100580000000696868468847A068E168081AA18881
:10059000884204D810480121401CFFF7ABF97CBD0C
:1005A00002218DF80010C06801900B480121401C09
:1005B000FFF7A0F90CE0FFE701210748FFF786FAF3
:1005C00006488168C0688842E9D103208DF80000A0
:1005D0006968684688477CBDF4200020CC2700204D
:1005E0002DE9FF413E4D4FF400712846FFF76FFBA8
:1005F00001273C4C4FF40178002600B34FF4927170
:100600002846FFF75FFBD0B1C5F82461C5F8088321
:10061000A07E00B96F6002208DF80000D5F880043C
:10062000C5F880040390E07D8DF80800E068019033
:10063000E6752676D4E900126846904724E0042146
:100640002846FFF744FBF8B14FF484712846FFF7C2
:1006500039FBC8B1FFF724FCE07D617E884213D1ED
:10066000227E3AB1607EE168E2752269E260267618
:10067000667607E0A07E00B96F60C5F80883E6756E
:10068000607EE168FFF792FC4FF48E712846FFF719
:1006900019FB58B1A18AA07D814202D2FFF7AAFEC0
:1006A00004E0C5F81C6108B1FFF706FF4FF4A27122
:1006B0002846FFF707FB00280FD0C5F84461A07E4D
:1006C00000B12F60E07D002807D0E675607EE1680C
:1006D00004B0BDE8F041FFF769BCBDE8FF81000050
:1006E00000200040342800207FB5334C4FF4927135
:1006F0002046FFF7F2FA314D0026B0B1C4F824616C
:1007000002208DF80000D4F88004C4F8800403901F
:10071000D4F83C058DF80800E8680190EE752E7657
:10072000D5E90012684690471FE04FF488712046D3
:10073000FFF7D3FAC8B1C4F81061D4F83C05E97DDD
:10074000C0B2814211D12A7E5AB1E968D4F8003290
:1007500023F02003C4F80032EA752A69EA602E7695
:1007600001E0EE75E968FFF721FC4FF4A271204625
:10077000FFF7B3FA50B1C4F84461E87D30B1EE75CB
:10078000D4F83C05E968C0B2FFF710FC4FF4907153
:100790002046FFF7A2FA00280CD0C4F82061A87DFB
:1007A000002807D0D4F84C0504B0C0B2BDE87040B2
:1007B000FFF782BE7FBD00000020004034280020EB
:1007C0000870000A487002207047000038B51549CB
:1007D0004888A0F57F42FF3A23D04A78124C521C39
:1007E000D2B24A70237B93420AD3091D75DF0028D9
:1007F00017D0A169002914D001B0BDE830400847E6
:1008000000254D70217C29B13B2176DF10B1A16913
:1008100001B188476169002903D08DF8005068460E
:10082000884738BDE0200020A0270020EFF3058096
:10083000C005C00D13D0103840B2002806DA00F011
:100840000F0000F1E02090F8140D03E000F1E0202B
:1008500090F800044009022803D0062803D00220A3
:100860007047002070470120704742788378521CFF
:10087000D2B2934200D100220378934201D10020EA
:1008800070470A704168407800EB400001EBC000FF
:1008900070472DE9FC411646DDE90854CDE90054C6
:1008A0001F468046022200F00CF8002807D1CDE94F
:1008B00000543B4610223146404600F002F8BDE8A5
:1008C000FC812DE9FC5F0026DDE90C4B9946924640
:1008D0008E4680462788354630E0D8F8040000224E
:1008E00000EB850069460068019001A865DF0028DB
:1008F00030D19DF8000050451FD10EB1002100E01D
:100900000221228808441118594522D846B9521CA0
:1009100090B2208009F800E02088401C2080012649
:10092000218801A801EB0902694665DF002811D181
:1009300020889DF80010084420806D1CB8F8000045
:10094000A842CADC56B12088C01B401E80B2FF28D6
:1009500002D90C20BDE8FC9F09F807000020F9E748
:10096000017911B9007B002800D0012070470000F8
:1009700002000007161705070100000000E0D7017C
:10098000B0250020D0250020800000044000000891
:10099000200000101000002008000040040000802B
:1009A00002000100010002000080040080400804F1
:1009B000402010082010201010084020080480401B
:1009C0000403008002000100010002000080040016
:1009D00080400804402010082010201010084020FB
:1009E00008048040040300800200010001000200AE
:1009F00000800400004008000020100000102000CB
:100A00000008400000048000000300000200010014
:100A100004000080080000401000002020000010AA
:100A20004000000880000004020001000400008073
:100A3000080000401000002020030010400480083F
:100A40008008400400102000002010000040080032
:100A50000080040001000200020001000403008085
:100A6000080480401008402020102010402010086A
:100A70008040080400800400010002000200010020
:100A8000040300800804804010084020201020103B
:100A9000402010088040080400800400010002008B
:100AA0000200010004000080080000401000002047
:100AB0002000001040000008800000040100020037
:100AC00002800500044008800820104010102020FB
:100AD000200840104004800880030004000000004B
:100AE000000000000000000000030000000480007F
:100AF0000008400000102000002010000040080006
:100B000000800400010002000200010004000080D7
:100B100008000040100000202000001040000008E5
:100B20008000000400000000000000000000000041
:100B30000000000000000000000FC00000000000E6
:100B4000000000000000000003F03F000000000073
:100B50000000000000000000FC0000FC000000009D
:100B60000000000000000000F8000000000000008D
:100B70000000000007C000000000000000000000AE
:100B8000003E000000000000000000008001F000B6
:100B9000400000002000000010000F80080000004E
:100BA000040000000200007C010000000080000042
:100BB00000400000802000004010000020080000DD
:100BC0001004000008020000040100000200800080
:100BD00001004000008020000040100000200800BC
:100BE0000010040000080200000401000002008060
:100BF000000100400000802000004010000020089C
:100C000000001004000008000000040000000200C2
:100C100000000100000000800000004000000020F3
:100C200000000010000000080000000400000000A8
:100C300010260020302600205C2600200D00000039
:100C40000E0000000F000000100000000D00030067
:100C5000F5E601000E000300F5E601000F000300B9
:100C6000F5E6010010000300F5E6010080270020F2
:100C70009ECADC240EE5A9E093F3A3B50000406E04
:100C8000060000000800000007000000050000004A
:100C900000000000000000000000D6010600000077
:100CA000060000000800000007000000050000002A
:100CB00000000000000000000000D6010600000057
:100CC0002C29002003000000E80C020080200020F6
:100CD000F0000000D8CF0100D80D020070210020E4
:100CE00040280000E8CF01000000FFFF01000200E3
:100CF00064006400000000000D0E0F1011121314A8
:100D000000000000000000000000000000000000E3
:100D100000000000000000000000000000000000D3
:100D200000000000000000000000000000000000C3
:100D3000FFFF0000000000000000000000000000B5
:100D400000000000000000000000000000000000A3
:100D50000000000000000000000000000000000093
:100D60000000000000000000000000000000000083
:100D70000000000000000000000000000000000073
:100D80000000000000000000000000000000000063
:100D90000000000000000000000000000000000053
:100DA0000000000000000000000000000000000043
:100DB0000000000000000000000000000000000033
:100DC0000000000000000000000000000000000023
:080DD000000000000090D003B8
:040000050001C40131
:00000001FF
